:100000000C9452000C946D000C946D000C946D00D7
:100010000C946D000C946D000C946D000C945006C3
:100020000C94C5030C946D000C946D000C946D0041
:100030000C946D000C946D000C946D000C946D008C
:100040000C946D000C946D000C946D000C946D007C
:100050000C946D000639652C033AA23B593C1EBA3C
:10006000E03D633BF43E75FF4E3F3172113F80002F
:1000700000000540B504F441A0000141E2463241D0
:10008000A0000040E246303F8000000541778C4FE1
:1000900040C32CE24117BF24C1A48DD9C0E1D8A12F
:1000A000C05B678211241FBECFE5D8E0DEBFCDBFA5
:1000B00010E0A0E6B0E0E4E8F6E102C005900D92A1
:1000C000A438B107D9F716E0A4E8B0E001C01D924A
:1000D000A03CB107E1F70C940C020C9400005D9B6E
:1000E000FECF8CB95D9BFECF84E58CB95F9BFECFC4
:1000F0008CB15F9BFECF2CB19927982F882733278F
:10010000822B932B089588E18AB98EE880BD10BCBC
:1001100087E689B90895E62FFF2744E0EE0FFF1F19
:100120004A95E1F7982F969596959695E90FF11DCA
:10013000E557FF4F877021E030E002C0220F331FE8
:100140008A95E2F78081822B80830895E62FFF272E
:1001500054E0EE0FFF1F5A95E1F7982F969596956C
:100160009695E90FF11DE557FF4F877021E030E0CC
:1001700002C0220F331F8A95E2F7209580818223E7
:1001800080830895E62FFF2764E0EE0FFF1F6A9536
:10019000E1F7982F969596959695E557FF4FE90FBD
:1001A000F11D877021E030E002C0220F331F8A95D5
:1001B000E2F78081822399270895A0E0B0E0E3EE82
:1001C000F0E00C94130B0E9480027B018C010E94D2
:1001D0002A0580E690E00E9432050E9422058CE606
:1001E00090E00E94320569E170E080E090E00E94BA
:1001F0004D0367EE7FEF81E090E00E944D036701C1
:10020000E7015801780100E00E942A0580E690E0AD
:100210000E9432050E9422058CE690E00E94320581
:100220000E948002AC016C157D0514F46B0104C0C2
:10023000C617D7070CF4EB014A155B0514F45A01F5
:1002400004C0E416F5060CF47A018AE090E00E94FE
:1002500005030F5F0F3FC1F660E070E080E090E0C3
:100260000E944D0360E070E081E090E00E944D0349
:1002700086010C0F1D1F159507951093870000939D
:100280008600EA0CFB1CF594E794F0928900E0925A
:1002900088000E942A0584E790E00E943205C80188
:1002A0000E9472050E94220588E790E00E943205B4
:1002B000C7010E9472050E94B705892BE1F3EAE0AD
:1002C000CDB7DEB70C942F0BCF92DF92EF92FF9257
:1002D0000F931F93C82EDD24C6010E942B038C01AF
:1002E00081E090E00E940503C6010E942B03080FE5
:1002F000191F81E090E00E940503C6010E942B03B4
:100300007C0181E090E00E940503C6010E942B035E
:10031000E80EF91E0E0D1F1D1695079516950795EB
:10032000045E1F4F80E498E0B8010E94E40A655023
:10033000862F99271F910F91FF90EF90DF90CF901C
:1003400008951F93CF93DF93182F0E946F00EC0145
:10035000812F0E94640199278931910510F0CE0107
:1003600007C08830910520F0E39710F080E090E01E
:10037000DF91CF911F9108951F9360E070E080E0BE
:1003800090E00E9418060E94800210E080E00E9427
:10039000A101612F77276C5F7F4F80E090E00E9482
:1003A000180689E090E00E9405031C5F1F3F71F76B
:1003B00080E08F5F8038E9F71F910895A0E0B0E0FA
:1003C000E4EEF1E00C94140BAFEFCA2EDA2EEE241B
:1003D000FF240E2D80E00E94A101EC011127B8013D
:1003E00080E090E00E941806CC15DD0510F46E0147
:1003F000BE2C8AE090E00E9405030894E11CF11CE9
:1004000080E0E81681E0F80621F78B2D9927E9E0D6
:10041000CDB7DEB70C94300BEF92FF920F931F9382
:1004200080E480938A0080E380938B060E94CE054F
:100430000E94AC030E94C70660E070E080E090E09C
:100440000E944D0360E070E081E090E00E944D0367
:1004500060E070E082E090E00E944D0360E070E0B8
:1004600083E090E00E944D030E946A0288E18AB90D
:100470008EE880BD10BC87E689B90E94DD000E942D
:100480002A050E94800220918600309187008B010E
:10049000021B130B20918800309189007C01E21A25
:1004A000F30A8CE790E00E943205C8010E947205B1
:1004B0008FE790E00E943205C7010E9472050E94FA
:1004C000220582E090E00E94720588EC90E00E9494
:1004D0000503D5CF27B3206B2F7B27BB26B32F7106
:1004E000206128BB2F7E322F3068206044E038BB6B
:1004F0004A95000028BBD9F72F71206128BB0895C9
:1005000027B3206B2F7B27BB26B32F702061022ED1
:100510002F7E322F422F522F206A70E080E028BBBE
:100520003062406838BB63E0000048BB6A95000059
:1005300058BBD9F790E008BA6FEFAFEF00000000AA
:1005400000000000AA95D1F7AFEF6A95B9F7000057
:1005500000000000A0E0C8BA00000000000008BAD7
:1005600000000000000058BB00000000000062E036
:1005700028BB6A95000038BBD9F762E048BB6A9592
:10058000000058BBD9F768E048BBB0E000000000AD
:1005900058BBB699B60F48BB6695D1F7BC30000082
:1005A0000000C9F670E064E058BBB699760F48BB0E
:1005B0006695D1F760E858BBB699A60F48BB66951B
:1005C000D1F764E058BBB699960F48BB6695D1F752
:1005D00060E858BBB699860F48BB6695D1F76A2F7D
:1005E00008BA72FD786F92FD986F0895AC0120E013
:1005F00030E0E4E0F0E005C0CF010197F1F72F5FB4
:100600003F4F24173507C1F70895AC0120E030E0D3
:10061000E0EAFFE005C0CF010197F1F72F5F3F4F00
:1006200024173507C1F7089586B1856886B93D9AC4
:100630008AB3806E8ABB0895DF98DE98DD9882E0E9
:100640008A95F1F787B1807E87B9369A3699FECFC1
:1006500085B199270895282F87B1807E87B92730E3
:1006600090F4DF98DE98DD988BB333272F5F3F4FF0
:1006700095E0220F331F9A95E1F7822B8BBB84E61E
:100680008A95F1F704C087B12650822B87B9369A34
:100690003699FECF85B199270895DF92EF92FF92A8
:1006A0000F931F93D62E94E696171CF434E6D32EA0
:1006B00005C0ECE96E1714F42CE9D22EF894282F1B
:1006C00033278D2D992787FD909597FF03C090952F
:1006D00081959F4F65E070E00E94F80AF901E656A7
:1006E000F94F60838901000F111F8CE8E82E86E026
:1006F000F82EE00EF11E77278827992728EC30E0A6
:1007000040E050E00E94B90AF70171836083F8016C
:100710003196D7FC0BC020919E0681E090E002C08C
:10072000880F991FEA95E2F7282B0BC020919E06AF
:1007300081E090E002C0880F991FEA95E2F780956A
:10074000282320939E061092940678941F910F916F
:10075000FF90EF90DF900895F8948EB582608EBD83
:1007600089B7886089BF60E080E00E944D0360E047
:1007700081E00E944D0360E082E00E944D0360E052
:1007800083E00E944D03789408951F920F920FB654
:100790000F921124EF92FF920F931F932F933F9389
:1007A0004F935F936F937F938F939F93AF93BF9379
:1007B000CF93DF93EF93FF9380919406882309F002
:1007C00075C0AFEFBFEF30E0E0E0F0E00AE916E01F
:1007D00040E050E06CE8E62E66E0F62E61E070E066
:1007E000E8018881882339F18431A1F120919E06A6
:1007F000CB01042E02C0880F991F0A94E2F7282B20
:1008000020939E0620919706CB010E2E02C0880FE2
:10081000991F0A94E2F7282B20939706809194065B
:100820008F5F80939406E701888199818A179B07DF
:10083000E8F4DC011BC020919E06CB01042E02C00F
:10084000880F991F0A94E2F78095282320939E062B
:100850003F5F0CC020919E06CB01042E02C0880F82
:10086000991F0A94E2F7282B20939E0631960F5F7A
:100870001F4F4E5F5F4F82E090E0E80EF91EE230BE
:10088000F10509F0ADCF323011F4A0EDB7E0B0932F
:100890009906A093980688B599B59093960680938B
:1008A000950688B599B58A0F9B1F6FC06FEF7FEFD4
:1008B00040E050E0ECE8F6E0C1E0D0E0A0E0B0E0DD
:1008C000809197069927042E02C0959587950A94E2
:1008D000E2F780FF28C02091980630919906808128
:1008E000918128173907F8F020919706CE01042E40
:1008F00002C0880F991F0A94E2F78095282320935D
:10090000970620919E06CE010A2E02C0880F991FDD
:100910000A94E2F78095282320939E0680919406FE
:10092000815080939406809197069927042E02C0E7
:10093000959587950A94E2F780FF06C080819181A2
:100940008617970708F4BC014F5F5F4F12963296E7
:100950004230510509F0B4CF80919406882339F4D0
:1009600080919506909196068056904F0EC02091EA
:10097000980630919906709399066093980688B509
:1009800099B5621B730B860F971F99BD88BDF894AC
:10099000949A8FEF84BB80919E0685BB83E0982F4D
:1009A0009A95F1F7959A982F9A95F1F795988A95D7
:1009B000F1F714BA7894FF91EF91DF91CF91BF9145
:1009C000AF919F918F917F916F915F914F913F91E7
:1009D0002F911F910F91FF90EF900F900FBE0F90EE
:1009E0001F901895F8949FEF94BB85BB81E090E031
:1009F0000E94F602C09A81E090E00E94F602C09840
:100A000081E090E00E94F60214BA78940895C19AA9
:100A10000E94F2040895C1980E94F2040895282FBC
:100A2000862F61E10E94D80A2295220F220F207C96
:100A30002068892F822B0E940B0584E690E00E949B
:100A4000F602089580EC0E940B0584E690E00E9477
:100A5000F602089581E00E940B0588E49DE00E9463
:100A6000F6020895FF920F931F93CF93DF93EC014B
:100A7000FC0101900020E9F73197FE2EF81A00E002
:100A800010E00AC0FE01E20FF11D80810E940705FF
:100A900084E690E00E94F602202F0F5F1F4F8F2DFB
:100AA000992701960817190769F7E5E0CDB7DEB772
:100AB0000C94340BAAE0B0E0E0E6F5E00C94170BE0
:100AC00000E010E023E030E07E010894E11CF11C1E
:100AD000A7010E943007C7010E943205E6E02A966E
:100AE0000C94330BA5E0B0E0E8E7F5E00C941B0BA9
:100AF0004AE050E0BE016F5F7F4F0E94FF060E94F8
:100B00003205E2E025960C94370B88E30E940B0532
:100B100085E090E00E94050388E30E940B0580EACF
:100B200090E00E94F60288E30E940B0580EA90E0C4
:100B30000E94F60288E30E940B0580EA90E00E9482
:100B4000F60288E00E940B0580EA90E00E94F6021F
:100B500081E00E940B0580EA9FE00E94F60286E099
:100B60000E940B0580EA90E00E94F602089580B38F
:100B7000992787FD9095809590958827990F881FD4
:100B800099270895BB9AC39A0895BB9AC39808956C
:100B9000D49ADC9A0895D49ADC98089514BA8C9A61
:100BA0008D9A8E9A949A95989698B89AB99AC09870
:100BB000C198979A0E9414030E94850581B58861A7
:100BC00081BD11BC8CE090E00E940B0580EA90E0B2
:100BD0000E94F6020895382FF89414BA949821E0F0
:100BE000822F8A95F1F783B32A95F1F7949A789436
:100BF000992702C0959587953A95E2F78170907094
:100C00000895E82FFF27EE0FFF1FDF01A155B94F11
:100C100088EF91E111969C938E932D913C9188E001
:100C200094E3821B930BE156F94F918380830895DF
:100C30006B3F08F06AEF2AE0629F90011124285F61
:100C4000384FE82FFF27EE0FFF1FDF01A155B94FE7
:100C50004D915C9188E094E3841B950BF894DF013F
:100C6000A155B94F11963C932E93E156F94F9183BC
:100C7000808378940895F894949A8FEF84BB809140
:100C8000BF0685BB81E0982F9A95F1F7969A982F29
:100C90009A95F1F796988A95F1F714BA7894089591
:100CA0001F920F920FB60F9211242F933F934F93E1
:100CB0005F936F937F938F939F93AF93BF93EF93C4
:100CC000FF93809185008130B1F41092BF060E949D
:100CD0003B068AB59BB5E0918400FF27EE0FFF1F0E
:100CE000E156F94F20813181820F931F9BBD8ABD50
:100CF000109285003BC0809184008F5F80938400B8
:100D000080918400833011F4109284001092BF0609
:100D1000E0918400FF27EE0FFF1FE155F94F80811E
:100D20009181885F914181F08091BF06909184000C
:100D300021E030E002C0220F331F9A95E2F7822BA8
:100D40008093BF060E943B062AB53BB5E091840024
:100D5000FF27EE0FFF1FE155F94F80819181280F8A
:100D6000391F3BBD2ABD81E080938500FF91EF9143
:100D7000BF91AF919F918F917F916F915F914F91B3
:100D80003F912F910F900FBE0F901F90189548EF35
:100D900051E15093B0064093AF068091AF06909119
:100DA000B00628E034E3B901681B790B7093A00604
:100DB00060939F065093B2064093B1068091B106AE
:100DC0009091B206B901681B790B7093A2066093EB
:100DD000A1065093B4064093B3068091B306909158
:100DE000B406281B390B3093A4062093A3068EB5B6
:100DF00082608EBD89B7806189BF78940895FB01B8
:100E00009F01E8944230C4F04532B4F44A3029F4EA
:100E100097FB1EF4909581959F4F642F77270E9432
:100E2000E40A805D8A330CF0895D8193CB010097E1
:100E3000A1F716F45DE251931082C9010C942007CA
:100E4000DC01FC0101900020E9F73297AE17BF07E3
:100E500030F47C916081708331976D93F7CF089562
:100E6000322F202FBF92CF92DF92EF92FF920F93FB
:100E70001F93DF93CF935F934F93D52FC42F192FD9
:100E8000082F000F111FC1F400E221FD0BE220FD2D
:100E9000099390E38EE275E422FF70626BE299930E
:100EA000332329F03A95899399933A95EAF7799300
:100EB000699399939993B6C01F3F31F49EE481E6FC
:100EC000999389939993AEC099231AF40DE29F7771
:100ED00004C000E221FD0BE220FD0993132F2F93A4
:100EE000F62EE72ED82EC92E4C2F5D2F0E9491088A
:100EF00068817981882777FD8095982F0E943C082A
:100F00002BE930E24AE95EE30E94D0080E941F0804
:100F1000B62E6623C1F00E943C080E941809262FB5
:100F2000372F482F592F60E070E080E291E40E9453
:100F30001B092F2D3E2D4D2D5C2D0E94D008F62E25
:100F4000E72ED82EC92E1730C8F460E070E080E09C
:100F50009FE3002707C02DEC3CEC4CEC5DE30E94C6
:100F6000D00803950117B8F32F2D3E2D4D2D5C2D84
:100F70000E946509F62EE72ED82EC92E6F2D7E2DE4
:100F80008D2D9C2D4C2F5D2F0E94A0080B810023DE
:100F900061F4BA9420E030E040E251E40E94D008CD
:100FA000F62EE72ED82EC92EE9CF002726C007300F
:100FB00008F56F2D7E2D8D2D9C2D4C2F5D2F0E94C1
:100FC000A00820E030E040E251E40E94D008F62E74
:100FD000E72ED82EC92E688179818A819B810E9453
:100FE0001F08862F805D8993002331F4112321F09F
:100FF0008EE201C080E3899303951017C0F68F91AC
:1010000075E482FF706279937BE2BB2012F4B194A5
:101010007DE279938B2D6AE00E94D80A805D8993E6
:10102000905D999318828F919F91CF91DF911F913D
:101030000F91FF90EF90DF90CF90BF90089597FBB6
:101040004ED09F3738F0FEE9F91B982F872F762F67
:101050006B2F05C061C09695879577956795F15080
:10106000D0F73EF490958095709561957F4F8F4FA6
:101070009F4F0895E89403C097FB0EF4F3DFB62F5B
:10108000672F782F892F9EE9002405C09A95BB0F02
:10109000661F771F881F11249923A1F08823B2F7B8
:1010A0009F3F59F0BB0F48F421F4002011F460FF7A
:1010B00004C06F5F7F4F8F4F9F4F881F9795879515
:1010C00097F9089529C0052E092607FA440F551FE0
:1010D0005F3F79F0AA27A51708F051E04795880FE0
:1010E000991F9F3F31F0BB27B91708F091E0879512
:1010F00008959F919F91112476C197FB880F991FA6
:101100009F3F31F0BB27B91708F091E0879508950C
:101110009F919F91112467C1662777278827992778
:101120000895FA01EADF992341F09E57220B90833C
:1011300021838F779FE397F9089590831182ECCFF5
:10114000DCDFCF93DF93D52FC42F552744273327D8
:1011500022279923D9F09F37C8F0F92F9CDF592F08
:10116000482F372F262FF63968F469DF85DFC03026
:10117000CD0721F069937993899399939058DF91E2
:10118000CF91A3C09927882777276627C030CD073E
:1011900021F02993399349935993DF91CF917BCFD4
:1011A00092DF01D078CF992339F0552329F09F574A
:1011B0005F57950F13F49AF1B2CF91589F3FE1F327
:1011C000629FA12D0F92BB27639FA00DB11DEE273B
:1011D000729FA00DB11DEE1FAF93AA27649FB00DA3
:1011E000E11D739FB00DE11DAA1F6627829FB00D00
:1011F000E11DA61F5527749FE00DA11D551F839F5C
:10120000E00DA11D561F849FA00D511D852F7A2F23
:101210006E2F1F900F9088231AF4939539F4E3C032
:10122000000C111CBB1F661F771F881F0128089523
:10123000F0E89F2708953CD038F02ED060F186F07A
:1012400021F436D009F03EF5CEC05F934F933F9323
:101250002F9311D12F913F914F915F91A1DF77C0D3
:1012600027D098F389F00894E795D901AA2329F4A7
:10127000AB2FBE2FF85FD0F3E8CFFF5F30F7A69516
:10128000E0F7F73908F309F09F779F939F77DDDF49
:10129000EF91E0789E270895E894FC01EE0FFF1F80
:1012A00030966105710519F0F395F14097FB0895AB
:1012B000E894FA01EE0FFF1F30962105310519F071
:1012C000F395F14057FB08955058192EFCDE01D0DC
:1012D000E2CEBA176207730784079507B1F188F465
:1012E0000EF410940B2EBA2FA02D062E622F202D57
:1012F000072E732F302D082E842F402D092E952F69
:10130000502DFF275523B9F0591B49F0573E98F04F
:10131000469537952795A795F0405395C9F776F0F0
:10132000BA0F621F731F841F30F4879577956795F6
:10133000B795F040939517FA0F2E0895BF1BBB2762
:10134000BA0B620B730B840BF6CFDEF6E8CE092ED8
:1013500099234AF052E441EB32E76831730784077E
:10136000950758F040C09F7752E44EEA3CEA60355A
:1013700073078407950708F0CFCE0F925FE348EB21
:101380003AEA2BE30DDFFF92EF92DF92CF9250E02B
:101390004CE0D6DEE4E5F0E029D05F2D4E2D3D2D6A
:1013A0002C2DCF90DF90EF90FF90FEE94595441FE4
:1013B000551FF51B5527406804C04695379527955E
:1013C0005795FA95D2F7452F550F550B42D00F90F0
:1013D00007FC01C008959B01AC019FE380E87727DB
:1013E00066270C94640A9FEF80EC0895FF92EF92B9
:1013F000DF92CF92BF926B017C01B59016D0B59071
:10140000BB2069F09F938F937F936F93B601C701C1
:101410000CD02F913F914F915F910E94640ABF9031
:10142000CF90DF90EF90FF90089594D002C0960186
:10143000A701EF93FF930E94D008FF91EF918AD00C
:10144000EF93FF930E946509FF91EF91BA9479F7AA
:10145000089553DE992359F0AA27940FA51F43F04E
:1014600032F04FEF50E09417A50714F414CE54CE89
:101470000EF07AC074C097FDB6CF3FDE992309F411
:10148000B2CFFF92EF92DF92CF92C92E9FE38F7778
:10149000E2E7F0E0ABDF0C2CC92ED82EE72EF62EBB
:1014A000602D6E57770B872F972FE6DD5FE341E3C3
:1014B00032E728E175DE5C2D4D2D3E2D2F2DCF908E
:1014C000DF90EF90FF9001CFFEDD01D0E4CD5523FA
:1014D00059F0992369F09F575F57951B33F442F4F5
:1014E000903811F4915805C07ECF91589F3F09F470
:1014F00016CEBB27112462177307840730F4660FDA
:10150000771F881FBB1F915098F311D00F920FD0F7
:101510000F920DD0A0E82617370748071B0609F0E1
:10152000A048BA2F602D7F918F9100240895A0E8E4
:101530000024621773078407B10528F0621B730B40
:10154000840BB1090A2A660F771F881FBB1FA69557
:1015500081F70895559145913591259108959FEF13
:1015600080E870E060E008959FE780E870E060E068
:101570000895629FD001739FF001829FE00DF11DDD
:10158000649FE00DF11D929FF00D839FF00D749FFD
:10159000F00D659FF00D9927729FB00DE11DF91FA9
:1015A000639FB00DE11DF91FBD01CF011124089506
:1015B000991B79E004C0991F961708F0961B881FA5
:1015C0007A95C9F780950895AA1BBB1B51E107C006
:1015D000AA1FBB1FA617B70710F0A61BB70B881FC3
:1015E000991F5A95A9F780959095BC01CD01089552
:1015F00097FB092E07260AD077FD04D0E5DF06D039
:1016000000201AF4709561957F4F0895F6F7909534
:1016100081959F4F08952F923F924F925F926F92C4
:101620007F928F929F92AF92BF92CF92DF92EF9272
:10163000FF920F931F93CF93DF93CDB7DEB7CA1BF3
:10164000DB0B0FB6F894DEBF0FBECDBF09942A881E
:10165000398848885F846E847D848C849B84AA84C6
:10166000B984C884DF80EE80FD800C811B81AA8153
:10167000B981CE0FD11D0FB6F894DEBF0FBECDBF1E
:04168000ED010895DB
:1016840043616C6962726174696E6700436F6D7067
:1016940061737300783A2000793A200078200020A2
:0416A40079200000A9
:00000001FF
