:100000000C9452000C946D000C946D000C946D00D7
:100010000C946D000C946D000C946D000C944502D2
:100020000C943C030C946D000C946D000C946D00CA
:100030000C946D000C946D000C946D000C946D008C
:100040000C946D000C946D000C946D000C946D007C
:100050000C946D000639652C033AA23B593C1EBA3C
:10006000E03D633BF43E75FF4E3F3172113F80002F
:1000700000000540B504F441A0000141E2463241D0
:10008000A0000040E246303F8000000541778C4FE1
:1000900040C32CE24117BF24C1A48DD9C0E1D8A12F
:1000A000C05B678211241FBECFE5D8E0DEBFCDBFA5
:1000B00010E0A0E6B0E0E6E7F3E102C005900D92A3
:1000C000AE38B107D9F710E0AEE8B0E001C01D923C
:1000D000A43CB107E1F70C94B9000C9400005D9BBF
:1000E000FECF8CB95D9BFECF84E58CB95F9BFECFC4
:1000F0002CB15F9BFECF8CB13327322F222799275B
:10010000822B932B089588E18AB98EE880BD10BCBC
:1001100087E689B908950F931F9380E090E00E94CD
:10012000B6018C0181E090E00E94920180E090E0B5
:100130000E94B601080F191F81E090E00E94920111
:1001400080E090E00E94B601080F191F81E090E066
:100150000E94920180E090E00E94B601080F191FF2
:100160001695079516950795802F99271F910F9142
:100170000895CFE5D8E0DEBFCDBF0E945B050E94A9
:1001800025020E9423030E94830068E770E080E05C
:1001900090E00E94FE0180E690E00E94BF040E9471
:1001A00013058EE690E00E94BF040E943D0584E6A0
:1001B00090E00E9492010E94400584E690E00E9437
:1001C00092010E943D0584E690E00E9492010E9407
:1001D000400504C082E390E00E9492010E94300535
:1001E000892BC1F30E943D05FF2400E010E068E781
:1001F00070E0C8010E94FE016EE170E0C8010E943B
:10020000BF0262EE7FEF81E090E00E94BF02F394B4
:1002100080E00E946F00EC0180E00E948B00873438
:1002200010F0C0E0D0E00C171D0708F48E010E940A
:100230000B0588E790E00E94BF04CE010E94DD0418
:100240008EE790E00E94BF04C8010E94DD0489EAA5
:100250008F15E8F60D38110510F00CE810E00115C7
:100260001105F9F080E00E946F00EC01239680E018
:100270000E948B00873410F0C0E0D0E00E940B0594
:1002800088E790E00E94BF04CE010E94DD048EE763
:1002900090E00E94BF04C8010E94DD04C017D1078E
:1002A00008F360E070E0CB010E94BF0260E070E004
:1002B00081E090E00E94BF0284EF91E00E949201F1
:1002C00018E701E080E00E948B00C82F64E670E030
:1002D00080E090E00E94BF0264E670E081E090E080
:1002E0000E94BF02C43608F07FCF100F812F9927DC
:1002F000BC0180E090E00E94FE01183C08F00FEF86
:10030000193208F401E080E00E948B00C82F0E949F
:100310000B0584E890E00E94BF048C2F99270E946F
:10032000DD04E0CFAC0120E030E02417350738F4DD
:1003300080EA9FE00197F1F72F5F3F4FF6CF0895D6
:10034000AC0120E030E02417350738F484E090E079
:100350000197F1F72F5F3F4FF6CF089586B185687B
:1003600086B93D9A8AB3806E8ABB0895982F87B16B
:10037000807E87B9973090F4DF98DE98DD98892FDA
:100380009927019625E0880F991F2A95E1F72BB34D
:10039000282B2BBB84E68A95F1F704C0965087B1D1
:1003A000892B87B9369A3699FECF85B1992708955A
:1003B000DF98DE98DD9882E08A95F1F787B1807E3C
:1003C00087B9369A3699FECF85B199270895E82FD7
:1003D000FF27EE0FFF1FDF01A056BF4F88EF91E10F
:1003E00011969C938E93E057FF4F2D913C9180E4A2
:1003F0009CE9821B930B918380830895782F6B3F38
:1004000008F06AEF8AE0689FA0011124485F584F06
:10041000E72FFF27EE0FFF1FE056FF4F80819181EE
:1004200020E43CE9281B390BF894E72FFF27EE0F57
:10043000FF1FDF01A056BF4F11965C934E93E0570C
:10044000FF4F318320837894089580E00E94E70174
:100450008EB582608EBD89B7806189BF789408951A
:10046000F894949A8FEF84BB8091B00085BB81E0B3
:100470008A95F1F7969A81E08A95F1F7969881E04E
:100480008A95F1F714BA789408951F920F920FB6D7
:100490000F9211242F933F934F935F936F937F930A
:1004A0008F939F93AF93BF93EF93FF9380918E00B1
:1004B0008130B9F41092B0000E94300280918F0018
:1004C000E82FFF27EE0FFF1FE057FF4F8AB59BB5C0
:1004D00020813181820F931F9BBD8ABD10928E00B7
:1004E0003DC080918F008F5F80938F0080918F003F
:1004F000813011F410928F001092B00080918F0023
:10050000E82FFF27EE0FFF1FE056FF4F80819181FC
:10051000885F914181F080918F0021E030E002C03E
:10052000220F331F8A95E2F78091B000822B8093CF
:10053000B0000E94300280918F00E82FFF27EE0F5D
:10054000FF1FE056FF4F8AB59BB520813181820F96
:10055000931F9BBD8ABD81E080938E00FF91EF9138
:10056000BF91AF919F918F917F916F915F914F91CB
:100570003F912F910F900FBE0F901F901895EF9203
:10058000FF920F931F93CF93C62F653614F0C4E6E6
:1005900003C06C390CF4CCE9F894282F3327F90107
:1005A000E154FF4F8C2F992787FD909597FF03C04B
:1005B000909581959F4F65E070E00E945D09CB01A9
:1005C00060838901020F131F91EBE92E90E0F92E51
:1005D000E00EF11E9927AA27BB27BC01CD0128EC0C
:1005E00030E040E050E00E943209DC01CB01F7012D
:1005F0009183808398012F5F3F4FC7FD0DC081E03D
:1006000090E002C0880F991F2A95E2F72091C3005D
:10061000282B2093C3000EC081E090E002C0880F19
:10062000991F2A95E2F7982F90958091C30089230E
:100630008093C3001092B9007894CF911F910F91CD
:10064000FF90EF900895F8948EB582608EBD89B7C3
:10065000886089BF60E0862F0E94BF0260E081E071
:100660000E94BF0260E082E00E94BF0260E083E07F
:100670000E94BF02789408951F920F920FB60F92B6
:100680001124CF92DF92EF92FF920F931F932F933B
:100690003F934F935F936F937F938F939F93AF930A
:1006A000BF93CF93DF93EF93FF936FEF7FEFEE2432
:1006B0008091B900882309F073C0A1E0B0E0CFEBCE
:1006C000D0E0CC24DD2431E0F32EA60101EB10E0D4
:1006D0008881882339F1843129F19D01042E02C0DB
:1006E000220F331F0A94E2F78091C300822B80937C
:1006F000C3009D010C2C02C0220F331F0A94E2F7A5
:100700008091BC00822B8093BC008091B9008F5FE8
:100710008093B900F801808191818617970708F5C9
:10072000BC011FC08881882381F4CD01042E02C042
:10073000880F991F0A94E2F7982F90958091C30033
:1007400089238093C300E3940CC09D01042E02C052
:10075000220F331F0A94E2F78091C300822B80930B
:10076000C300FA940894C11CD11C0E5F1F4F4E5F4A
:100770005F4F2196F7FEACCFF2E0EF1611F460ED7B
:1007800077E07093BE006093BD0088B599B59093F3
:10079000BB008093BA0088B599B5860F971F70C0CB
:1007A000C1E0D0E040E050E021E0F22EE1EBF0E0EB
:1007B000DA018091BC009927042E02C09595879597
:1007C0000A94E2F780FF2AC0208131818091BD0028
:1007D0009091BE008217930708F1CE01042E02C04B
:1007E000880F991F0A94E2F7982F90958091BC008A
:1007F00089238093BC00CE010A2E02C0880F991F66
:100800000A94E2F7982F90958091C30089238093F2
:10081000C3008091B90081508093B9008091BC00E1
:100820009927042E02C0959587950A94E2F780FFD8
:1008300006C0808191818617970708F4BC01FA945D
:100840004F5F5F4F12963296F7FEB3CF8091B9009B
:10085000882339F48091BA009091BB008056904F64
:100860000FC08091BD009091BE009B01281B390BE9
:100870007093BE006093BD0088B599B5820F931F39
:1008800099BD88BDF894949A8FEF84BB8091C30082
:1008900085BB83E08A95F1F7959A83E08A95F1F715
:1008A000959883E08A95F1F714BA7894FF91EF91C7
:1008B000DF91CF91BF91AF919F918F917F916F9178
:1008C0005F914F913F912F911F910F91FF90EF906A
:1008D000DF90CF900F900FBE0F901F901895982F1C
:1008E000F8948FEF84BB95BB81E090E00E94A0015B
:1008F000C09A81E090E00E94A001C09881E090E061
:100900000E94A00114BA78940895C1980E946F04BF
:100910000895C19A0E946F04089588E30E94850497
:1009200085E090E00E94920188E30E94850480EABD
:1009300090E00E94A00188E30E94850480EA90E094
:100940000E94A00188E30E94850480EA90E00E9452
:10095000A00188E00E94850480EA90E00E94A00146
:1009600081E00E94850480EA9FE00E94A00186E069
:100970000E94850480EA90E00E94A00108950F93F0
:100980001F93CF93DF93FC0101900020E9F731978B
:100990000E2F081B10E0101758F4EC0189910E94EB
:1009A000890484E690E00E94A0011F5F1017B0F355
:1009B000DF91CF911F910F910895A5E0B0E0E3EE94
:1009C000F4E00C9480094AE050E0BE016F5F7F4F75
:1009D0000E9478050E94BF04E2E025960C949C09D1
:1009E000AAE0B0E0E6EFF4E00C947E09DC01CB0174
:1009F00000E010E023E030E0AE014F5F5F4FBC014C
:100A0000CD010E94A905CE0101960E94BF04E4E039
:100A10002A960C949A0981E00E94850488E49DE05E
:100A20000E94A001089580EC0E94850484E690E075
:100A30000E94A0010895282F332786E0220F331F3C
:100A40008A95E1F7862F61E10E945109892F822B57
:100A500080680E94850484E690E00E94A0010895C9
:100A600080E090E0879902C081E090E00895BB9A11
:100A7000C39A0895BB9AC3980895D49ADC9A0895AE
:100A8000D49ADC980895282FF89414BA949881E0A9
:100A90008A95F1F793B381E08A95F1F7949A789467
:100AA000892F992702C0959587952A95E2F799276E
:100AB00081709070089514BA8C9A8D9A8E9A949A37
:100AC00095989698B89AB99AC098C198979A0E94A2
:100AD000AE010E948D0481B5886181BD11BC8CE09E
:100AE00090E00E94850480EA90E00E94A0010895B1
:100AF000FB019F01E8944230C4F04532B4F44A301F
:100B000029F497FB1EF4909581959F4F642F7727CA
:100B10000E94A709805D8A330CF0895D8193CB0127
:100B20000097A1F716F45DE251931082C9010C946D
:100B30009905DC01FC0101900020E9F73297AE171E
:100B4000BF0730F47C916081708331976D93F7CF4C
:100B50000895322F202FBF92CF92DF92EF92FF9213
:100B60000F931F93DF93CF935F934F93D52FC42F92
:100B7000192F082F000F111FC1F400E221FD0BE215
:100B800020FD099390E38EE275E422FF70626BE230
:100B90009993332329F03A95899399933A95EAF7F3
:100BA0007993699399939993B6C01F3F31F49EE46A
:100BB00081E6999389939993AEC099231AF40DE233
:100BC0009F7704C000E221FD0BE220FD0993132F63
:100BD0002F93F62EE72ED82EC92E4C2F5D2F0E9474
:100BE0000A0768817981882777FD8095982F0E9470
:100BF000B5062BE930E24AE95EE30E9449070E940C
:100C00009806B62E6623C1F00E94B5060E94910791
:100C1000262F372F482F592F60E070E080E291E4B3
:100C20000E9494072F2D3E2D4D2D5C2D0E944907CB
:100C3000F62EE72ED82EC92E1730C8F460E070E0EB
:100C400080E09FE3002707C02DEC3CEC4CEC5DE31B
:100C50000E94490703950117B8F32F2D3E2D4D2D06
:100C60005C2D0E94DE07F62EE72ED82EC92E6F2DA2
:100C70007E2D8D2D9C2D4C2F5D2F0E9419070B81F1
:100C8000002361F4BA9420E030E040E251E40E9495
:100C90004907F62EE72ED82EC92EE9CF002726C009
:100CA000073008F56F2D7E2D8D2D9C2D4C2F5D2F3F
:100CB0000E94190720E030E040E251E40E94490719
:100CC000F62EE72ED82EC92E688179818A819B81E4
:100CD0000E949806862F805D8993002331F41123AA
:100CE00021F08EE201C080E3899303951017C0F6CE
:100CF0008F9175E482FF706279937BE2BB2012F4DE
:100D0000B1947DE279938B2D6AE00E945109805D58
:100D10008993905D999318828F919F91CF91DF91E4
:100D20001F910F91FF90EF90DF90CF90BF900895AB
:100D300097FB4ED09F3738F0FEE9F91B982F872F8D
:100D4000762F6B2F05C061C096958795779567952F
:100D5000F150D0F73EF490958095709561957F4F56
:100D60008F4F9F4F0895E89403C097FB0EF4F3DF75
:100D7000B62F672F782F892F9EE9002405C09A95FA
:100D8000BB0F661F771F881F11249923A1F08823AA
:100D9000B2F79F3F59F0BB0F48F421F4002011F443
:100DA00060FF04C06F5F7F4F8F4F9F4F881F9795E5
:100DB000879597F9089529C0052E092607FA440F4B
:100DC000551F5F3F79F0AA27A51708F051E0479516
:100DD000880F991F9F3F31F0BB27B91708F091E0AA
:100DE000879508959F919F91112476C197FB880F55
:100DF000991F9F3F31F0BB27B91708F091E0879505
:100E000008959F919F91112467C1662777278827AE
:100E100099270895FA01EADF992341F09E57220BA2
:100E2000908321838F779FE397F9089590831182B0
:100E3000ECCFDCDFCF93DF93D52FC42F552744278A
:100E4000332722279923D9F09F37C8F0F92F9CDF49
:100E5000592F482F372F262FF63968F469DF85DFA1
:100E6000C030CD0721F06993799389939993905875
:100E7000DF91CF91A3C09927882777276627C030B5
:100E8000CD0721F02993399349935993DF91CF915D
:100E90007BCF92DF01D078CF992339F0552329F009
:100EA0009F575F57950F13F49AF1B2CF91589F3F18
:100EB000E1F3629FA12D0F92BB27639FA00DB11D8F
:100EC000EE27729FA00DB11DEE1FAF93AA27649F5E
:100ED000B00DE11D739FB00DE11DAA1F6627829F13
:100EE000B00DE11DA61F5527749FE00DA11D551FD4
:100EF000839FE00DA11D561F849FA00D511D852FBE
:100F00007A2F6E2F1F900F9088231AF4939539F43F
:100F1000E3C0000C111CBB1F661F771F881F012830
:100F20000895F0E89F2708953CD038F02ED060F166
:100F300086F021F436D009F03EF5CEC05F934F9392
:100F40003F932F9311D12F913F914F915F91A1DF4B
:100F500077C027D098F389F00894E795D901AA23A0
:100F600029F4AB2FBE2FF85FD0F3E8CFFF5F30F747
:100F7000A695E0F7F73908F309F09F779F939F77DD
:100F8000DDDFEF91E0789E270895E894FC01EE0FF5
:100F9000FF1F30966105710519F0F395F14097FB3D
:100FA0000895E894FA01EE0FFF1F309621053105F0
:100FB00019F0F395F14057FB08955058192EFCDEB7
:100FC00001D0E2CEBA176207730784079507B1F123
:100FD00088F40EF410940B2EBA2FA02D062E622F3B
:100FE000202D072E732F302D082E842F402D092EF3
:100FF000952F502DFF275523B9F0591B49F0573E27
:1010000098F0469537952795A795F0405395C9F7E1
:1010100076F0BA0F621F731F841F30F4879577959F
:101020006795B795F040939517FA0F2E0895BF1B5B
:10103000BB27BA0B620B730B840BF6CFDEF6E8CE40
:10104000092E99234AF052E441EB32E768317307E5
:101050008407950758F040C09F7752E44EEA3CEA77
:10106000603573078407950708F0CFCE0F925FE3D2
:1010700048EB3AEA2BE30DDFFF92EF92DF92CF923B
:1010800050E04CE0D6DEE4E5F0E029D05F2D4E2DB7
:101090003D2D2C2DCF90DF90EF90FF90FEE94595F0
:1010A000441F551FF51B5527406804C046953795CA
:1010B00027955795FA95D2F7452F550F550B42D0E6
:1010C0000F9007FC01C008959B01AC019FE380E8ED
:1010D000772766270C94DD089FEF80EC0895FF9238
:1010E000EF92DF92CF92BF926B017C01B59016D048
:1010F000B590BB2069F09F938F937F936F93B60158
:10110000C7010CD02F913F914F915F910E94DD0854
:10111000BF90CF90DF90EF90FF90089594D002C0E1
:101120009601A701EF93FF930E944907FF91EF916A
:101130008AD0EF93FF930E94DE07FF91EF91BA945C
:1011400079F7089553DE992359F0AA27940FA51F24
:1011500043F032F04FEF50E09417A50714F414CE8B
:1011600054CE0EF07AC074C097FDB6CF3FDE9923FF
:1011700009F4B2CFFF92EF92DF92CF92C92E9FE394
:101180008F77E2E7F0E0ABDF0C2CC92ED82EE72EEC
:10119000F62E602D6E57770B872F972FE6DD5FE3D6
:1011A00041E332E728E175DE5C2D4D2D3E2D2F2DDC
:1011B000CF90DF90EF90FF9001CFFEDD01D0E4CD26
:1011C000552359F0992369F09F575F57951B33F4C6
:1011D00042F4903811F4915805C07ECF91589F3F4A
:1011E00009F416CEBB27112462177307840730F465
:1011F000660F771F881FBB1F915098F311D00F9275
:101200000FD00F920DD0A0E82617370748071B060E
:1012100009F0A048BA2F602D7F918F910024089586
:10122000A0E80024621773078407B10528F0621B49
:10123000730B840BB1090A2A660F771F881FBB1F27
:10124000A69581F708955591459135912591089579
:101250009FEF80E870E060E008959FE780E870E02D
:1012600060E00895629FD001739FF001829FE00DBE
:10127000F11D649FE00DF11D929FF00D839FF00D15
:10128000749FF00D659FF00D9927729FB00DE11DC1
:10129000F91F639FB00DE11DF91FBD01CF0111249E
:1012A0000895991B79E004C0991F961708F0961BC2
:1012B000881F7A95C9F78095089597FB092E072610
:1012C0000AD077FD04D043D006D000201AF47095E0
:1012D00061957F4F0895F6F7909581959F4F0895FA
:1012E0002F923F924F925F926F927F928F929F9236
:1012F000AF92BF92CF92DF92EF92FF920F931F9324
:10130000CF93DF93CDB7DEB7CA1BDB0B0FB6F894D4
:10131000DEBF0FBECDBF09942A88398848885F8414
:101320006E847D848C849B84AA84B984C884DF8085
:10133000EE80FD800C811B81AA81B981CE0FD11D69
:101340000FB6F894DEBF0FBECDBFED010895AA1B06
:10135000BB1B51E107C0AA1FBB1FA617B70710F0A0
:10136000A61BB70B881F991F5A95A9F780959095D2
:06137000BC01CD0108954F
:10137600526F64656E7469612044656D6F006279B1
:101386002041757374696E00686572653D00206D55
:0E13960061783D0044697374616E63653D00CB
:00000001FF
