:100000000C94AF000C94CC000C94CC000C94CC005D
:100010000C94CC000C94CC000C94CC000C94950463
:100020000C94CC000C94CC000C94CC000C941E02CC
:100030000C94CC000C9432050C9474050C94CC00F8
:100040000C94CC000C94CC000C94CC000C94CC0000
:100050000C94CC00696E6600494E46006E616E00DD
:100060004E414E0000407A10F35A00A0724E18091B
:100070000010A5D4E80000E87648170000E40B540F
:10008000020000CA9A3B000000E1F50500008096DE
:100090009800000040420F000000A0860100000010
:1000A000102700000000E8030000000064000000CA
:1000B00000000A00000000000100000000002C7693
:1000C000D888DC674F0823DFC1DFAE59E1B1B796AE
:1000D000E5E3E453C63AE651997696E8E6C284260B
:1000E000EB898C9B62ED407C6FFCEFBC9C9F40F2E7
:1000F000BAA56FA5F490055A2AF75C936B6CF96763
:100100006DC11BFCE0E40D47FEF520E6B500D0ED27
:10011000902E0300943577050080841E080000208F
:100120004E0A000000C80C333333330F986E12832D
:100130001141EF8D2114893BE65516CFFEE6DB1801
:10014000D1844B381BF77C1D901DA4BBE4242032C6
:1001500084725E228100C9F124ECA1E53D271124BF
:100160001FBECFE5D8E0DEBFCDBF10E0A0E6B0E017
:10017000E0E8FFE002C005900D92A837B107D9F77B
:1001800011E0A8E7B0E001C01D92A634B107E1F785
:100190000E944D010C94BF070C940000EF92FF9257
:1001A0000F931F93E82EFF24C7010E9418038C01B0
:1001B00081E090E00E94F202C7010E941803080F3C
:1001C000191F81E090E00E94F202C7010E9418030B
:1001D000080F191F81E090E00E94F202C7010E94FF
:1001E0001803080F191F1695079516950795045EB5
:1001F0001F4F80E498E0B8010E9474076550862F75
:1002000099271F910F91FF90EF9008950F931F93DF
:100210000E945F058823E1F70E945F05082F0E9476
:100220005F05182F602F0F3108F06EE168587727AF
:1002300080E090E00E945D041858612F77271857DE
:1002400081E090E00E945D040E940D040E94D703AB
:1002500080E090E00E94AD0380E690E00E94890378
:10026000802F99270E94AD0380E690E00E948903C9
:10027000812F992787FD90950E94AD030E9410045D
:10028000C7CF80E090E00E941803809314010E9481
:100290001E02F7CF0E941E02FDCFCFE5D8E0DEBFE1
:1002A000CDBF0E9413040E940C050E9492010E947F
:1002B000C1050E949F028AE491E00E94AF0268E7B4
:1002C00070E080E090E00E945D0468E770E081E00B
:1002D00090E00E945D0418C00E940903082F1127B6
:1002E000B80180E090E00E945D040E94D70382E69E
:1002F00090E00E9489030E94DF03C8010E94AD03C1
:1003000088E290E00E94F2020E94FC03892B21F314
:100310000E94D7038AE690E00E9489030E940601AA
:100320000C94BF0727B3206B2F7B27BB26B32F71FD
:10033000206128BB2F7E322F3068206044E038BB1C
:100340004A95000028BBD9F72F71206128BB08957A
:1003500027B3206B2F7B27BB26B32F702061022E83
:100360002F7E322F422F522F206A70E080E028BB70
:100370003062406838BB63E0000048BB6A9500000B
:1003800058BBD9F790E008BA6FEFAFEF000000005C
:1003900000000000AA95D1F7AFEF6A95B9F7000009
:1003A00000000000A0E0C8BA00000000000008BA89
:1003B00000000000000058BB00000000000062E0E8
:1003C00028BB6A95000038BBD9F762E048BB6A9544
:1003D000000058BBD9F768E048BBB0E0000000005F
:1003E00058BBB699B60F48BB6695D1F7BC30000034
:1003F0000000C9F670E064E058BBB699760F48BBC0
:100400006695D1F760E858BBB699A60F48BB6695CC
:10041000D1F764E058BBB699960F48BB6695D1F703
:1004200060E858BBB699860F48BB6695D1F76A2F2E
:1004300008BA72FD786F92FD986F08957894DF93F3
:10044000EF93FF930F921F92DFB7F0910C01E5E25B
:10045000FE9FE8E7F0E0E00DF11D1F900F90019284
:1004600011922192319241925192619271928192B4
:100470009192A192B192C192D192E192F1920193A3
:10048000119321933193419351936193719381938C
:100490009193A193B193C1932F901F900F900192CC
:1004A00011922192D1930F901F90019211920DB64B
:1004B0001EB601921192E0910C01F0910D01E395AD
:1004C000EF170CF0EE27E0930C01F5E2EF9FE8E761
:1004D000F0E0E00DF11D01901190219031904190DC
:1004E00051906190719081909190A190B190C19044
:1004F000D190E190F190019111912191319141912F
:1005000051916191719181919191A191B191F894E1
:100510003796C191D191CDBFDEBF78943497C19108
:10052000D191DF93CF933297C291CFBFC291D29135
:10053000CF93DF93D291C291EF91FF911895EE275F
:10054000E0930C01E160E0930D01F894EE27E56083
:10055000E3BFE9B7E160ED7FE9BF78940895E82F44
:10056000F92F88278160B0910D01B43044F5AA2796
:10057000A562AB9FAA27BB27A867B060A00DB11DDD
:10058000112490E21D929A95E9F7992790689D931E
:10059000FD93ED9390910D0180E4899FEFE5F8E0E4
:1005A000E019F1091124002482EC829385E0829302
:1005B000ED93FD93939590930D0140DF88271124CF
:1005C00008953CDFFECFAC0120E030E0E4E0F0E055
:1005D00005C0CF010197F1F72F5F3F4F2417350773
:1005E000C0F30895AC0120E030E0E0EAFFE005C090
:1005F000CF010197F1F72F5F3F4F24173507C0F365
:10060000089586B1856886B93D9A8AB3806E8ABBA3
:100610000895DF98DE98DD9882E08A95F1F787B13A
:10062000807E87B9369A3699FECF85B1992708958D
:10063000282F87B1807E87B9273090F4DF98DE9825
:10064000DD988BB333272F5F3F4F95E0220F331F89
:100650009A95E1F7822B8BBB84E68A95F1F704C06B
:1006600087B12650822B87B9369A3699FECF85B14D
:1006700099270895F8949FEF94BB85BB81E090E0A3
:100680000E94E302C09A81E090E00E94E302C098D9
:1006900081E090E00E94E30214BA78940895C19832
:1006A0000E943A030895C19A0E943A03089588E38C
:1006B0000E944F0385E090E00E94F20288E30E94CE
:1006C0004F0380EA90E00E94E30288E30E944F0318
:1006D00080EA90E00E94E30288E30E944F0380EAF0
:1006E00090E00E94E30288E00E944F0380EA90E0DD
:1006F0000E94E30281E00E944F0380EA9FE00E9493
:10070000E30286E00E944F0380EA90E00E94E30249
:100710000895FF920F931F93CF93DF93EC01FC0199
:1007200001900020E9F73197FE2EF81A00E010E062
:100730000CC0FE01E80FF11D80810E94530384E686
:1007400090E00E94E3020F5F1F4F802F0F1588F388
:10075000E5E0CDB7DEB70C94B107A5E0B0E0E3EB80
:10076000F3E00C9498074AE050E0BE016F5F7F4FC2
:100770000E9437070E948903E2E025960C94B40793
:10078000AAE0B0E0E6ECF3E00C94960700E010E09D
:1007900023E030E0AE014F5F5F4F0E94D605CE01EF
:1007A00001960E948903E4E02A960C94B20781E046
:1007B0000E944F0388E49DE00E94E302089580ECCC
:1007C0000E944F0384E690E00E94E3020895282FE0
:1007D000332786E0220F331F8A95E1F7862F61E1E8
:1007E0000E946807892F822B80680E944F0384E64D
:1007F00090E00E94E302089580B3992787FD9095C9
:10080000809590958827990F881F99270895BB9AFE
:10081000C39A0895BB9AC3980895D49ADC9A089510
:10082000D49ADC98089514BA8C9A8D9A8E9A949AD8
:1008300095989698B89AB99AC098C198979A0E9434
:1008400001030E94570381B5886181BD11BC8CE012
:1008500090E00E944F0380EA90E00E94E302089536
:10086000382FF89414BA949821E0822F8A95F1F7E2
:1008700083B32A95F1F7949A7894992702C09595B5
:1008800087953A95E2F7817090700895E82FFF27D9
:10089000EE0FFF1FDF01AB5DBE4F88EF91E11196B8
:1008A0009C938E932D913C9188E893E1821B930B4E
:1008B000EB5EFE4F9183808308956B3F08F06AEFF3
:1008C0002AE0629F90011124285F384FE82FFF270C
:1008D000EE0FFF1FDF01AB5DBE4F4D915C9188E8CD
:1008E00093E1841B950BF894DF01AB5DBE4F11962D
:1008F0003C932E93EB5EFE4F918380837894089512
:10090000F894949A8FEF84BB8091350185BB81E088
:10091000982F9A95F1F7969A982F9A95F1F79698BD
:100920008A95F1F714BA789408951F920F920FB632
:100930000F9211242F933F934F935F936F937F9365
:100940008F939F93AF93BF93EF93FF9380910E018B
:100950008130B1F4109235010E9480048AB59BB5B4
:10096000E0910F01FF27EE0FFF1FEB5EFE4F20818E
:100970003181820F931F9BBD8ABD10920E013BC037
:1009800080910F018F5F80930F0180910F0188305C
:1009900011F410920F0110923501E0910F01FF2721
:1009A000EE0FFF1FEB5DFE4F80819181885F9141CB
:1009B00081F08091350190910F0121E030E002C07B
:1009C000220F331F9A95E2F7822B809335010E9404
:1009D00080042AB53BB5E0910F01FF27EE0FFF1F02
:1009E000EB5DFE4F80819181280F391F3BBD2ABDF1
:1009F00081E080930E01FF91EF91BF91AF919F91A4
:100A00008F917F916F915F914F913F912F910F90B7
:100A10000FBE0F901F901895CF93DF9320E030E02A
:100A200068EF71E148E853E1A5E1B1E0E5E2F1E00A
:100A30007183608381919191EA01C81BD90B119652
:100A4000DC93CE9312962F5F3F4F2830310581F70C
:100A50008EB582608EBD89B7806189BF7894DF9141
:100A6000CF9108951F920F920FB60F9211248F937A
:100A70009F93EF93FF93809113019CB1E6E3F1E024
:100A8000E80FF11D90838F5F877080931301809131
:100A900012018F5F80931201FF91EF919F918F91CF
:100AA0000F900FBE0F901F9018958091120120E0BB
:100AB00030E0882311F021E030E0C90108958091F1
:100AC00012018823E1F390911201E0911301FF27B5
:100AD000E91BF109E770F070EA5CFE4F80819150EC
:100AE00090931201992708951F920F920FB60F92BB
:100AF00011248F939F93EF93FF938091100188238C
:100B000089F080911001E0911101FF27E81BF109A4
:100B1000E770F070E25CFE4F90819CB98150809349
:100B2000100101C05598FF91EF919F918F910F9007
:100B30000FBE0F901F9018958091100120E030E0BB
:100B4000883010F421E030E0C9010895982F809199
:100B500010018830E0F7559880911101E82FFF27A8
:100B6000E25CFE4F90838F5F8770809311018091CC
:100B700010018F5F80931001559A089555985798EA
:100B80000895559857988898909888E18AB98EE882
:100B900080BD10BC83E689B910921101109210013A
:100BA0001092130110921201579A0895FF920F9319
:100BB0001F93CF93DF93EA01122FF02E283008F015
:100BC00017E000E0212FAE010E945806482FDE01F9
:100BD0005D91252F332720FF04C023FD02C08DE245
:100BE0000BC08F2D992781FF02C08BE205C080FDCD
:100BF00002C0FE0103C080E28883FD01852F992792
:100C000083FF03C06CE570E004C082FF0AC064E5A6
:100C100070E0F2FE02C06C5F7F4FCF010E94300790
:100C200041C08C918193DF01BE016E5F7F4F8133A4
:100C300009F05F7E112389F03EE290E0212F21959B
:100C4000FB018191BF01FD0131939150382F921723
:100C500011F0DF01F5CF80831296F2FE02C085E429
:100C600001C085E6FD01819347FF06C08DE2FD01CD
:100C70008183329641950CC0442331F454FF04C063
:100C80008DE2FD01818303C08BE28083FD013296FA
:100C900080E302C08F5F4A504A30E4F78083405DB2
:100CA00041831282CE01E5E0CDB7DEB70C94B107E7
:100CB000283008F027E03327DA01990F311D87FD2E
:100CC000916000966105710539F432602E5F3D93A5
:100CD00030E32A95E1F708959F3F30F080387105A1
:100CE000610509F03C5F3C5F3D93913008F08068FE
:100CF000911DDF93CF931F930F93FF92EF92192FC4
:100D0000987F9695E92F96959695E90FFF27E254DF
:100D1000FF4F99273327EE24FF24A701E701059011
:100D20000894079428F4360FE71EF81E491F511D3A
:100D3000660F771F881F991F0694A1F705900794E7
:100D400028F4E70EF81E491F561FC11D770F881F94
:100D5000991F661F0694A1F70590079428F4F80ED2
:100D6000491F561FC71FD11D880F991F661F771F68
:100D70000694A1F70590079420F4490F561FC71F4A
:100D8000D81F990F661F771F881F0694A9F78491B3
:100D90001095177041F0D695C79557954795F794DC
:100DA000E7941A95C1F7E4E6F0E068941590159180
:100DB00035916591959105907FE27395E118F10A5F
:100DC000430B560BC90BD009C0F7E10CF11E431FB2
:100DD000561FC91FD01D7EF4703311F48A95E6CFDB
:100DE000E894015030F0080F0AF40027021708F4C5
:100DF000202F2395022F7A3328F079E37D932A95CB
:100E0000E9F710C07D932A9589F606949795679522
:100E1000379517951794E118F10A430B560BC90B38
:100E2000D00998F023957E9173957A3308F070E39A
:100E30007C932013B8F77E9170617D9330F0839599
:100E400071E37D9370E32A95E1F71124EF90FF9011
:100E50000F911F91CF91DF91992787FD909508956C
:100E6000FB01DC0105900D920020E1F70895FB01E4
:100E70009F01E8944230C4F04532B4F44A3029F47A
:100E800097FB1EF4909581959F4F642F77270E94C2
:100E90007407805D8A330CF0895D8193CB010097E4
:100EA000A1F716F45DE251931082C9010C94580722
:100EB000DC01FC01672F71917723E1F7329704C0C1
:100EC0007C916D9370836291AE17BF07C8F308954C
:100ED000991B79E004C0991F961708F0961B881F8C
:100EE0007A95C9F780950895AA1BBB1B51E107C0ED
:100EF000AA1FBB1FA617B70710F0A61BB70B881FAA
:100F0000991F5A95A9F780959095BC01CD01089538
:100F10002F923F924F925F926F927F928F929F9209
:100F2000AF92BF92CF92DF92EF92FF920F931F93F7
:100F3000CF93DF93CDB7DEB7CA1BDB0B0FB6F894A8
:100F4000DEBF0FBECDBF09942A88398848885F84E8
:100F50006E847D848C849B84AA84B984C884DF8059
:100F6000EE80FD800C811B81AA81B981CE0FD11D3D
:100F70000FB6F894DEBF0FBECDBFED010895FFCFD1
:100F8000200057616974696E670057616974696E02
:080F9000672064617461000038
:00000001FF
