:100000000C94AF000C94CC000C94CC000C94CC005D
:100010000C94CC000C94CC000C94CC000C947E047A
:100020000C94CC000C94CC000C94CC000C940602E4
:100030000C94CC000C9414050C9456050C94CC0034
:100040000C94CC000C94CC000C94CC000C94CC0000
:100050000C94CC00696E6600494E46006E616E00DD
:100060004E414E0000407A10F35A00A0724E18091B
:100070000010A5D4E80000E87648170000E40B540F
:10008000020000CA9A3B000000E1F50500008096DE
:100090009800000040420F000000A0860100000010
:1000A000102700000000E8030000000064000000CA
:1000B00000000A00000000000100000000002C7693
:1000C000D888DC674F0823DFC1DFAE59E1B1B796AE
:1000D000E5E3E453C63AE651997696E8E6C284260B
:1000E000EB898C9B62ED407C6FFCEFBC9C9F40F2E7
:1000F000BAA56FA5F490055A2AF75C936B6CF96763
:100100006DC11BFCE0E40D47FEF520E6B500D0ED27
:10011000902E0300943577050080841E080000208F
:100120004E0A000000C80C333333330F986E12832D
:100130001141EF8D2114893BE65516CFFEE6DB1801
:10014000D1844B381BF77C1D901DA4BBE4242032C6
:1001500084725E228100C9F124ECA1E53D271124BF
:100160001FBECFE5D8E0DEBFCDBF10E0A0E6B0E017
:10017000E8E5FFE002C005900D92AA36B107D9F775
:1001800011E0AAE6B0E001C01D92A733B107E1F784
:100190000E9405010C94AB070C9400000F931F9371
:1001A0000E9441058823E1F70E944105082F0E9423
:1001B0004105182F68E770E080E090E00E94460457
:1001C0001858612F7727185781E090E00E94460465
:1001D0000E94F6030E94580380E090E00E94A00372
:1001E00080E690E00E946003802F99270E94A00380
:1001F00080E690E00E946003812F992787FD90950B
:100200000E94A0030E94F903CBCF0F931F930E947B
:10021000FC030E94F5040E947A010E94A30568E78E
:1002200070E080E090E00E94460468E770E081E0C2
:1002300090E00E94460418C00E94EF02082F112788
:10024000B80180E090E00E9446040E94580382E6D4
:1002500090E00E9460030E945003C8010E94A00326
:1002600088E290E00E94D8020E94E503892B21F3E6
:100270000E94CE001F910F910895CF92DF92EF92CE
:10028000FF920F931F93C82EDD24C6010E94FE0229
:100290008C0181E090E00E94D802C6010E94FE021B
:1002A000080F191F81E090E00E94D802C6010E9449
:1002B000FE027C0181E090E00E94D802C6010E940B
:1002C000FE02E80EF91E0E0D1F1D169507951695D8
:1002D0000795045E1F4F80E498E0B8010E94600714
:1002E0006550862F99271F910F91FF90EF90DF9017
:1002F000CF90089527B3206B2F7B27BB26B32F7198
:10030000206128BB2F7E322F3068206044E038BB4C
:100310004A95000028BBD9F72F71206128BB0895AA
:1003200027B3206B2F7B27BB26B32F702061022EB3
:100330002F7E322F422F522F206A70E080E028BBA0
:100340003062406838BB63E0000048BB6A9500003B
:1003500058BBD9F790E008BA6FEFAFEF000000008C
:1003600000000000AA95D1F7AFEF6A95B9F7000039
:1003700000000000A0E0C8BA00000000000008BAB9
:1003800000000000000058BB00000000000062E018
:1003900028BB6A95000038BBD9F762E048BB6A9574
:1003A000000058BBD9F768E048BBB0E0000000008F
:1003B00058BBB699B60F48BB6695D1F7BC30000064
:1003C0000000C9F670E064E058BBB699760F48BBF0
:1003D0006695D1F760E858BBB699A60F48BB6695FD
:1003E000D1F764E058BBB699960F48BB6695D1F734
:1003F00060E858BBB699860F48BB6695D1F76A2F5F
:1004000008BA72FD786F92FD986F0895F894DF93A3
:10041000EF93FF930F921F92DFB7F091FE00E5E29A
:10042000FE9FEAE6F0E0E00DF11D1F900F900192B3
:1004300011922192319241925192619271928192E4
:100440009192A192B192C192D192E192F1920193D3
:1004500011932193319341935193619371938193BC
:100460009193A193B193C1932F901F900F900192FC
:1004700011922192D1930F901F90019211920DB67B
:100480001EB601921192E091FE00F091FF00E395FB
:10049000EF170CF0EE27E093FE00F5E2EF9FEAE69F
:1004A000F0E0E00DF11D019011902190319041900C
:1004B00051906190719081909190A190B190C19074
:1004C000D190E190F190019111912191319141915F
:1004D00051916191719181919191A191B1913796D1
:1004E000C191D191CDBFDEBF3497C191D191DF933E
:1004F000CF933297C291CFBFC291D291CF93DF9366
:10050000D291C291EF91FF911895EE27E093FE00F2
:10051000E160E093FF00F894EE27E560E3BFE9B700
:10052000E160ED7FE9BF78940895E82FF92F8827DF
:100530008160B091FF00B43044F5AA27A562AB9F5B
:10054000AA27BB27AA66B060A00DB11D112490E2B6
:100550001D929A95E9F7992790689D93FD93ED93E5
:100560009091FF0080E4899FEFE5F8E0E019F10940
:10057000112400248EE8829385E08293ED93FD930D
:1005800093959093FF0042DF8827112408953EDF62
:10059000FECFAC0120E030E0E4E0F0E005C0CF01A8
:1005A0000197F1F72F5F3F4F24173507C1F70895E3
:1005B000AC0120E030E0E0EAFFE005C0CF010197A8
:1005C000F1F72F5F3F4F24173507C1F7089586B124
:1005D000856886B93D9A8AB3806E8ABB0895DF9894
:1005E000DE98DD9882E08A95F1F787B1807E87B941
:1005F000369A3699FECF85B199270895282F87B16D
:10060000807E87B9273090F4DF98DE98DD988BB331
:1006100033272F5F3F4F95E0220F331F9A95E1F765
:10062000822B8BBB84E68A95F1F704C087B12650F4
:10063000822B87B9369A3699FECF85B199270895CE
:10064000F8949FEF94BB85BB81E090E00E94C902C3
:10065000C09A81E090E00E94C902C09881E090E0D9
:100660000E94C90214BA78940895C19A0E94200386
:100670000895C1980E9420030895282F862F61E1D4
:100680000E9454072295220F220F207C2068892F78
:10069000822B0E94390384E690E00E94C9020895EB
:1006A00080EC0E94390384E690E00E94C90208951C
:1006B00081E00E94390388E49DE00E94C902089508
:1006C000FF920F931F93CF93DF93EC01FC010190F6
:1006D0000020E9F73197FE2EF81A00E010E00AC07A
:1006E000FE01E20FF11D80810E94350384E690E057
:1006F0000E94C902202F0F5F1F4F8F2D992701964F
:100700000817190769F7E5E0CDB7DEB70C949D0728
:10071000AAE0B0E0EEE8F3E00C94800700E010E01F
:1007200023E030E07E010894E11CF11CA7010E9447
:10073000B805C7010E946003E6E02A960C949C0766
:10074000A5E0B0E0E6EAF3E00C9484074AE050E06C
:10075000BE016F5F7F4F0E9423070E946003E2E0AB
:1007600025960C94A00788E30E94390385E090E069
:100770000E94D80288E30E94390380EA90E00E9438
:10078000C90288E30E94390380EA90E00E94C9020E
:1007900088E30E94390380EA90E00E94C90288E061
:1007A0000E94390380EA90E00E94C90281E00E9421
:1007B000390380EA9FE00E94C90286E00E94390363
:1007C00080EA90E00E94C902089580B3992787FDCE
:1007D0009095809590958827990F881F992708955F
:1007E000BB9AC39A0895BB9AC3980895D49ADC9A89
:1007F0000895D49ADC98089514BA8C9A8D9A8E9A9A
:10080000949A95989698B89AB99AC098C198979AD8
:100810000E94E7020E94B30381B5886181BD11BCCB
:100820008CE090E00E94390380EA90E00E94C902C7
:100830000895382FF89414BA949821E0822F8A955D
:10084000F1F783B32A95F1F7949A7894992702C027
:10085000959587953A95E2F7817090700895E82F05
:10086000FF27EE0FFF1FDF01AA5EBE4F88EF91E169
:1008700011969C938E932D913C9188E893E1821B75
:10088000930BEA5FFE4F9183808308956B3F08F0DE
:100890006AEF2AE0629F90011124285F384FE82F09
:1008A000FF27EE0FFF1FDF01AA5EBE4F4D915C9147
:1008B00088E893E1841B950BF894DF01AA5EBE4F94
:1008C00011963C932E93EA5FFE4F91838083789438
:1008D0000895F894949A8FEF84BB8091260185BB8C
:1008E00081E0982F9A95F1F7969A982F9A95F1F7BB
:1008F00096988A95F1F714BA789408951F920F92FA
:100900000FB60F9211242F933F934F935F936F93E2
:100910007F938F939F93AF93BF93EF93FF938091B8
:1009200001018130B1F4109226010E9469048AB558
:100930009BB5E0910001FF27EE0FFF1FEA5FFE4F1E
:1009400020813181820F931F9BBD8ABD10920101CE
:100950003BC0809100018F5F809300018091000176
:10096000883011F41092000110922601E0910001EC
:10097000FF27EE0FFF1FEA5EFE4F80819181885FA7
:10098000914181F0809126019091000121E030E0B9
:1009900002C0220F331F9A95E2F7822B8093260123
:1009A0000E9469042AB53BB5E0910001FF27EE0FD4
:1009B000FF1FEA5EFE4F80819181280F391F3BBDEA
:1009C0002ABD81E080930101FF91EF91BF91AF912A
:1009D0009F918F917F916F915F914F913F912F9157
:1009E0000F900FBE0F901F90189548EF51E128E827
:1009F00033E1A6E0B1E0E6E1F1E05183408381918B
:100A00009191B901681B790B11967C936E931296A4
:100A100071E0A631B70789F78EB582608EBD89B7C0
:100A2000806189BF789408951F920F920FB60F923C
:100A300011248F939F93EF93FF93809102019CB1B8
:100A4000E7E2F1E0E80FF11D90838F5F87708093FC
:100A50000201809103018F5F80930301FF91EF9169
:100A60009F918F910F900FBE0F901F9018958091BE
:100A7000030120E030E0882311F021E030E0C901DB
:100A80000895809103018823E1F390910301E0919F
:100A90000201FF27E91BF109E770F070E95DFE4FE5
:100AA0008081915090930301992708951F920F928E
:100AB0000FB60F9211248F939F93EF93FF93809122
:100AC0000501882389F080910501E0910401FF2749
:100AD000E81BF109E770F070E15DFE4F90819CB971
:100AE00081508093050101C05598FF91EF919F912E
:100AF0008F910F900FBE0F901F9018958091050158
:100B000020E030E0883010F421E030E0C9010895A1
:100B1000982F809105018830E0F755988091040165
:100B2000E82FFF27E15DFE4F90838F5F87708093F2
:100B30000401809105018F5F80930501559A089506
:100B4000559857980895559857988898909888E19F
:100B50008AB98EE880BD10BC83E689B91092040181
:100B6000109205011092020110920301579A089504
:100B7000A0E0B0E0EEEBF5E00C947F077A01D02E18
:100B8000122F283008F017E000E0212FA7010E9463
:100B90004406BC01F7010191402F552740FF07C0D3
:100BA00043FD05C08DE2D7018C939F0115C02D2D0B
:100BB000332721FF04C08BE2E701888307C020FDB3
:100BC00002C0970104C080E2D7018C939F0143FFCC
:100BD00003C06CE570E004C042FF0AC064E570E049
:100BE000D2FE02C06C5F7F4FC9010E941C0746C045
:100BF0008081E9018993813309F00F7E1123B1F0DF
:100C0000A701D901812F2EE2FA019281FD012183F2
:100C100081504F5F5F4F1196292F8823A9F71150FC
:100C2000FE01E10FF11D9183EF012296D2FE02C079
:100C300085E401C085E6262FFE01819367FF06C08B
:100C40008DE28983DF01119621950CC0662339F46A
:100C500004FF05C08DE28983DF01119603C08BE29A
:100C60008193DF0180E302C08F5F2A502A30E4F7CE
:100C7000FD018193205DED0129831182C701E7E029
:100C8000CDB7DEB70C949B07283008F027E0332758
:100C9000DA01990F311D87FD91600096610571059C
:100CA00039F432602E5F3D9330E32A95E1F70895E1
:100CB0009F3F30F080387105610509F03C5F3C5F73
:100CC0003D93913008F08068911DDF93CF931F937F
:100CD0000F93FF92EF92192F987F9695E92F969593
:100CE0009695E90FFF27E254FF4F99273327EE240B
:100CF000FF24A701E70105900894079428F4360F14
:100D0000E71EF81E491F511D660F771F881F991F88
:100D10000694A1F70590079428F4E70EF81E491FE2
:100D2000561FC11D770F881F991F661F0694A1F7D4
:100D30000590079428F4F80E491F561FC71FD11DB0
:100D4000880F991F661F771F0694A1F705900794D7
:100D500020F4490F561FC71FD81F990F661F771F12
:100D6000881F0694A9F784911095177041F0D695C5
:100D7000C79557954795F794E7941A95C1F7E4E618
:100D8000F0E06894159015913591659195910590D5
:100D90007FE27395E118F10A430B560BC90BD0099A
:100DA000C0F7E10CF11E431F561FC91FD01D7EF472
:100DB000703311F48A95E6CFE894015030F0080FB3
:100DC0000AF40027021708F4202F2395022F7A3304
:100DD00028F079E37D932A95E9F710C07D932A9551
:100DE00089F6069497956795379517951794E118A6
:100DF000F10A430B560BC90BD00998F023957E914D
:100E000073957A3308F070E37C932013B8F77E91E2
:100E100070617D9330F0839571E37D9370E32A9543
:100E2000E1F71124EF90FF900F911F91CF91DF9187
:100E3000992787FD90950895FB01DC0105900D929F
:100E40000020E1F70895FB019F01E8944230C4F0CF
:100E50004532B4F44A3029F497FB1EF490958195FD
:100E60009F4F642F77270E946007805D8A330CF0C4
:100E7000895D8193CB010097A1F716F45DE2519350
:100E80001082C9010C944407DC01FC01672F7191A9
:100E90007723E1F7329704C07C916D937083629160
:100EA000AE17BF07C8F30895991B79E004C0991FD6
:100EB000961708F0961B881F7A95C9F780950895B4
:100EC000AA1BBB1B51E107C0AA1FBB1FA617B70770
:100ED00010F0A61BB70B881F991F5A95A9F780958C
:100EE0009095BC01CD0108952F923F924F925F9251
:100EF0006F927F928F929F92AF92BF92CF92DF922A
:100F0000EF92FF920F931F93CF93DF93CDB7DEB78E
:100F1000CA1BDB0B0FB6F894DEBF0FBECDBF099422
:100F20002A88398848885F846E847D848C849B8479
:100F3000AA84B984C884DF80EE80FD800C811B8187
:100F4000AA81B981CE0FD11D0FB6F894DEBF0FBEB6
:080F5000CDBFED010895FFCFB4
:0A0F5800200057616974696E67009C
:00000001FF
