:100000000C94AF000C94CC000C94CC000C94CC005D
:100010000C94CC000C94CC000C94CC000C94A00458
:100020000C94CC000C94CC000C94CC000C941E02CC
:100030000C94CC000C943D050C947F050C94CC00E2
:100040000C94CC000C94CC000C94CC000C94CC0000
:100050000C94CC00696E6600494E46006E616E00DD
:100060004E414E0000407A10F35A00A0724E18091B
:100070000010A5D4E80000E87648170000E40B540F
:10008000020000CA9A3B000000E1F50500008096DE
:100090009800000040420F000000A0860100000010
:1000A000102700000000E8030000000064000000CA
:1000B00000000A00000000000100000000002C7693
:1000C000D888DC674F0823DFC1DFAE59E1B1B796AE
:1000D000E5E3E453C63AE651997696E8E6C284260B
:1000E000EB898C9B62ED407C6FFCEFBC9C9F40F2E7
:1000F000BAA56FA5F490055A2AF75C936B6CF96763
:100100006DC11BFCE0E40D47FEF520E6B500D0ED27
:10011000902E0300943577050080841E080000208F
:100120004E0A000000C80C333333330F986E12832D
:100130001141EF8D2114893BE65516CFFEE6DB1801
:10014000D1844B381BF77C1D901DA4BBE4242032C6
:1001500084725E228100C9F124ECA1E53D271124BF
:100160001FBECFE5D8E0DEBFCDBF10E0A0E6B0E017
:10017000E6E9FFE002C005900D92A837B107D9F774
:1001800011E0A8E7B0E001C01D92A235B107E1F788
:100190000E944D010C94CA070C940000EF92FF924C
:1001A0000F931F93E82EFF24C7010E9423038C01A5
:1001B00081E090E00E94FD02C7010E942303080F26
:1001C000191F81E090E00E94FD02C7010E942303F5
:1001D000080F191F81E090E00E94FD02C7010E94F4
:1001E0002303080F191F1695079516950795045EAA
:1001F0001F4F80E498E0B8010E947F076550862F6A
:1002000099271F910F91FF90EF9008950F931F93DF
:100210000E946A058823E1F70E946A05082F0E9460
:100220006A05182F602F0F3108F06EE168587727A4
:1002300080E090E00E9468041858612F77271857D3
:1002400081E090E00E9468040E9418040E94E2038A
:1002500080E090E00E94B80380E690E00E94940362
:10026000802F99270E94B80380E690E00E949403B3
:10027000812F992787FD90950E94B8030E941B0447
:10028000C7CF80E090E00E942303809320010E946A
:100290001E02F7CF0E941E02FDCFCFE5D8E0DEBFE1
:1002A000CDBF0E941E040E9417050E9492010E9469
:1002B000CC050E94AA028AE491E00E94BA0268E793
:1002C00070E080E090E00E94680468E770E081E000
:1002D00090E00E94680418C00E941403082F1127A0
:1002E000B80180E090E00E9468040E94E20382E688
:1002F00090E00E9494030E94EA03C8010E94B803A0
:1003000088E290E00E94FD020E940704892B21F3FD
:100310000E94E2038AE690E00E9494030E94060194
:100320000C94CA0727B3206B2F7B27BB26B32F71F2
:10033000206128BB2F7E322F3068206044E038BB1C
:100340004A95000028BBD9F72F71206128BB08957A
:1003500027B3206B2F7B27BB26B32F702061022E83
:100360002F7E322F422F522F206A70E080E028BB70
:100370003062406838BB63E0000048BB6A9500000B
:1003800058BBD9F790E008BA6FEFAFEF000000005C
:1003900000000000AA95D1F7AFEF6A95B9F7000009
:1003A00000000000A0E0C8BA00000000000008BA89
:1003B00000000000000058BB00000000000062E0E8
:1003C00028BB6A95000038BBD9F762E048BB6A9544
:1003D000000058BBD9F768E048BBB0E0000000005F
:1003E00058BBB699B60F48BB6695D1F7BC30000034
:1003F0000000C9F670E064E058BBB699760F48BBC0
:100400006695D1F760E858BBB699A60F48BB6695CC
:10041000D1F764E058BBB699960F48BB6695D1F703
:1004200060E858BBB699860F48BB6695D1F76A2F2E
:1004300008BA72FD786F92FD986F08957894DF93F3
:10044000EF93FF930F921F92DFB7F0911801E8E24C
:10045000FE9FE8E7F0E0E00DF11D1F900F90019284
:1004600011922192319241925192619271928192B4
:100470009192A192B192C192D192E192F1920193A3
:10048000119321933193419351936193719381938C
:100490009193A193B193C1932F901F900F900192CC
:1004A00011922192D1930F901F90019211920DB64B
:1004B0001EB601921192F0911901E8E2D0E0C8E76E
:1004C00001E0EF9F0C0E1D1E0A2E1B2E95967D91AE
:1004D0008D919D91871700F0F01B99F3E09318011F
:1004E000F8E2EF9FE8E7F0E0E00DF11D01901190D8
:1004F00021903190419051906190719081909190B4
:10050000A190B190C190D190E190F19001911191A1
:10051000219131914191519161917191819191918B
:10052000A191B191F8943796C191D191CDBFDEBF21
:1005300078943497C191D191DF93CF933297C29140
:10054000CFBFC291D291CF93DF93D291C291EF915D
:10055000FF911895EE27E0931801E160E0931901EF
:10056000F894EE27E360E3BFE9B7E160ED7FE9BF10
:1005700078940895E82FF92F88278160B0911901A8
:10058000B43044F5AA27A862AB9FAA27BB27A86767
:10059000B060A00DB11D112490E21D929A95E9F76B
:1005A000992790689D93FD93ED939091190180E4B4
:1005B000899FEFE5F8E0E019F1091124002488EDA6
:1005C000829385E08293ED93FD9393959093190127
:1005D00035DF88271124089531DFFECFAC0120E0FC
:1005E00030E0E4E0F0E005C0CF010197F1F72F5FC4
:1005F0003F4F24173507C0F30895AC0120E030E0E9
:10060000E0EAFFE005C0CF010197F1F72F5F3F4F10
:1006100024173507C0F3089586B1856886B93D9AD9
:100620008AB3806E8ABB0895DF98DE98DD9882E0F9
:100630008A95F1F787B1807E87B9369A3699FECFD1
:1006400085B199270895282F87B1807E87B92730F3
:1006500090F4DF98DE98DD988BB333272F5F3F4F00
:1006600095E0220F331F9A95E1F7822B8BBB84E62E
:100670008A95F1F704C087B12650822B87B9369A44
:100680003699FECF85B199270895F8949FEF94BBD2
:1006900085BB81E090E00E94EE02C09A81E090E08C
:1006A0000E94EE02C09881E090E00E94EE0214BA2F
:1006B00078940895C1980E9445030895C19A0E94B4
:1006C0004503089588E30E945A0385E090E00E9464
:1006D000FD0288E30E945A0380EA90E00E94EE0245
:1006E00088E30E945A0380EA90E00E94EE0288E3C9
:1006F0000E945A0380EA90E00E94EE0288E00E9485
:100700005A0380EA90E00E94EE0281E00E945A03C0
:1007100080EA9FE00E94EE0286E00E945A0380EA8F
:1007200090E00E94EE020895FF920F931F93CF93E3
:10073000DF93EC01FC0101900020E9F73197FE2ED8
:10074000F81A00E010E00CC0FE01E80FF11D8081F6
:100750000E945E0384E690E00E94EE020F5F1F4F4E
:10076000802F0F1588F3E5E0CDB7DEB70C94BC07FA
:10077000A5E0B0E0EEEBF3E00C94A3074AE050E014
:10078000BE016F5F7F4F0E9442070E949403E2E028
:1007900025960C94BF07AAE0B0E0E1EDF3E00C94DD
:1007A000A10700E010E023E030E0AE014F5F5F4FB3
:1007B0000E94E105CE0101960E949403E4E02A968E
:1007C0000C94BD0781E00E945A0388E49DE00E94DA
:1007D000EE02089580EC0E945A0384E690E00E94A5
:1007E000EE020895282F332786E0220F331F8A95C3
:1007F000E1F7862F61E10E947307892F822B8068C1
:100800000E945A0384E690E00E94EE02089580B3AD
:10081000992787FD9095809590958827990F881F37
:1008200099270895BB9AC39A0895BB9AC3980895CF
:10083000D49ADC9A0895D49ADC98089514BA8C9AC4
:100840008D9A8E9A949A95989698B89AB99AC098D3
:10085000C198979A0E940C030E94620381B5886137
:1008600081BD11BC8CE090E00E945A0380EA90E0C8
:100870000E94EE020895382FF89414BA949821E05B
:10088000822F8A95F1F783B32A95F1F7949A789499
:10089000992702C0959587953A95E2F781709070F7
:1008A0000895E82FFF27EE0FFF1FDF01AF5CBE4F5B
:1008B00088EF91E111969C938E932D913C9188E85D
:1008C00093E1821B930BEF5DFE4F9183808308952C
:1008D0006B3F08F06AEF2AE0629F90011124285FC5
:1008E000384FE82FFF27EE0FFF1FDF01AF5CBE4F31
:1008F0004D915C9188E893E1841B950BF894DF019E
:10090000AF5CBE4F11963C932E93EF5DFE4F9183EB
:10091000808378940895F894949A8FEF84BB8091A3
:10092000410185BB81E0982F9A95F1F7969A982F0F
:100930009A95F1F796988A95F1F714BA78940895F4
:100940001F920F920FB60F9211242F933F934F9344
:100950005F936F937F938F939F93AF93BF93EF9327
:10096000FF9380911A018130B1F4109241010E94ED
:100970008B048AB59BB5E0911B01FF27EE0FFF1F8B
:10098000EF5DFE4F20813181820F931F9BBD8ABD99
:1009900010921A013BC080911B018F5F80931B0155
:1009A00080911B01883011F410921B0110924101BB
:1009B000E0911B01FF27EE0FFF1FEF5CFE4F8081D0
:1009C0009181885F914181F08091410190911B015B
:1009D00021E030E002C0220F331F9A95E2F7822B0C
:1009E000809341010E948B042AB53BB5E0911B0125
:1009F000FF27EE0FFF1FEF5CFE4F80819181280FD4
:100A0000391F3BBD2ABD81E080931A01FF91EF9110
:100A1000BF91AF919F918F917F916F915F914F9116
:100A20003F912F910F900FBE0F901F901895CF936D
:100A3000DF9320E030E068EF71E148E853E1A1E2A4
:100A4000B1E0E1E3F1E07183608381919191EA018A
:100A5000C81BD90B1196DC93CE9312962F5F3F4F94
:100A60002830310581F78EB582608EBD89B78061EF
:100A700089BF7894DF91CF9108951F920F920FB69E
:100A80000F9211248F939F93EF93FF9380911F01F7
:100A90009CB1E2E4F1E0E80FF11D90838F5F877075
:100AA00080931F0180911E018F5F80931E01FF9133
:100AB000EF919F918F910F900FBE0F901F901895FF
:100AC00080911E0120E030E0882311F021E030E029
:100AD000C901089580911E018823E1F390911E01C0
:100AE000E0911F01FF27E91BF109E770F070EE5B51
:100AF000FE4F8081915090931E01992708951F9277
:100B00000F920FB60F9211248F939F93EF93FF9341
:100B100080911C01882389F080911C01E0911D01C6
:100B2000FF27E81BF109E770F070E65BFE4F90814C
:100B30009CB9815080931C0101C05598FF91EF91A1
:100B40009F918F910F900FBE0F901F9018958091DD
:100B50001C0120E030E0883010F421E030E0C901D1
:100B60000895982F80911C018830E0F75598809166
:100B70001D01E82FFF27E65BFE4F90838F5F877094
:100B800080931D0180911C018F5F80931C01559AF9
:100B9000089555985798089555985798889890981B
:100BA00088E18AB98EE880BD10BC83E689B91092CD
:100BB0001D0110921C0110921F0110921E01579AE4
:100BC0000895FF920F931F93CF93DF93EA01122FA3
:100BD000F02E283008F017E000E0212FAE010E942F
:100BE0006306482FDE015D91252F332720FF04C0C7
:100BF00023FD02C08DE20BC08F2D992781FF02C01B
:100C00008BE205C080FD02C0FE0103C080E2888344
:100C1000FD01852F992783FF03C06CE570E004C0B8
:100C200082FF0AC064E570E0F2FE02C06C5F7F4F95
:100C3000CF010E943B0741C08C918193DF01BE012F
:100C40006E5F7F4F813309F05F7E112389F03EE2B2
:100C500090E0212F2195FB018191BF01FD0131938E
:100C60009150382F921711F0DF01F5CF8083129643
:100C7000F2FE02C085E401C085E6FD01819347FFD5
:100C800006C08DE2FD018183329641950CC044235C
:100C900031F454FF04C08DE2FD01818303C08BE277
:100CA0008083FD01329680E302C08F5F4A504A3054
:100CB000E4F78083405D41831282CE01E5E0CDB749
:100CC000DEB70C94BC07283008F027E03327DA01A0
:100CD000990F311D87FD916000966105710539F40A
:100CE00032602E5F3D9330E32A95E1F708959F3FF0
:100CF00030F080387105610509F03C5F3C5F3D9341
:100D0000913008F08068911DDF93CF931F930F936C
:100D1000FF92EF92192F987F9695E92F96959695C9
:100D2000E90FFF27E254FF4F99273327EE24FF24D2
:100D3000A701E70105900894079428F4360FE71EF1
:100D4000F81E491F511D660F771F881F991F0694B3
:100D5000A1F70590079428F4E70EF81E491F561FC7
:100D6000C11D770F881F991F661F0694A1F7059074
:100D7000079428F4F80E491F561FC71FD11D880F6E
:100D8000991F661F771F0694A1F70590079420F41A
:100D9000490F561FC71FD81F990F661F771F881F3F
:100DA0000694A9F784911095177041F0D695C795D0
:100DB00057954795F794E7941A95C1F7E4E6F0E064
:100DC00068941590159135916591959105907FE204
:100DD0007395E118F10A430B560BC90BD009C0F704
:100DE000E10CF11E431F561FC91FD01D7EF4703346
:100DF00011F48A95E6CFE894015030F0080F0AF418
:100E00000027021708F4202F2395022F7A3328F0A9
:100E100079E37D932A95E9F710C07D932A9589F6A9
:100E2000069497956795379517951794E118F10AE9
:100E3000430B560BC90BD00998F023957E917395FF
:100E40007A3308F070E37C932013B8F77E917061D9
:100E50007D9330F0839571E37D9370E32A95E1F7FC
:100E60001124EF90FF900F911F91CF91DF9199275F
:100E700087FD90950895FB01DC0105900D920020FF
:100E8000E1F70895FB019F01E8944230C4F0453238
:100E9000B4F44A3029F497FB1EF4909581959F4F46
:100EA000642F77270E947F07805D8A330CF0895D6D
:100EB0008193CB010097A1F716F45DE25193108264
:100EC000C9010C946307DC01FC01672F7191772342
:100ED000E1F7329704C07C916D9370836291AE17F5
:100EE000BF07C8F30895991B79E004C0991F9617AE
:100EF00008F0961B881F7A95C9F780950895AA1B5C
:100F0000BB1B51E107C0AA1FBB1FA617B70710F0F4
:100F1000A61BB70B881F991F5A95A9F78095909526
:100F2000BC01CD0108952F923F924F925F926F9234
:100F30007F928F929F92AF92BF92CF92DF92EF9269
:100F4000FF920F931F93CF93DF93CDB7DEB7CA1BEA
:100F5000DB0B0FB6F894DEBF0FBECDBF09942A8815
:100F6000398848885F846E847D848C849B84AA84BD
:100F7000B984C884DF80EE80FD800C811B81AA814A
:100F8000B981CE0FD11D0FB6F894DEBF0FBECDBF15
:060F9000ED010895FFCF02
:100F9600200057616974696E670057616974696EEC
:080FA600672064617461000022
:00000001FF
