:100000000C94AF000C94CC000C94CC000C94CC005D
:100010000C94CC000C94CC000C94CC000C94A00458
:100020000C94CC000C94CC000C94CC000C940D02DD
:100030000C94CC000C9418050C9454050C94CC0032
:100040000C94CC000C94CC000C94CC000C94CC0000
:100050000C94CC00696E6600494E46006E616E00DD
:100060004E414E0000407A10F35A00A0724E18091B
:100070000010A5D4E80000E87648170000E40B540F
:10008000020000CA9A3B000000E1F50500008096DE
:100090009800000040420F000000A0860100000010
:1000A000102700000000E8030000000064000000CA
:1000B00000000A00000000000100000000002C7693
:1000C000D888DC674F0823DFC1DFAE59E1B1B796AE
:1000D000E5E3E453C63AE651997696E8E6C284260B
:1000E000EB898C9B62ED407C6FFCEFBC9C9F40F2E7
:1000F000BAA56FA5F490055A2AF75C936B6CF96763
:100100006DC11BFCE0E40D47FEF520E6B500D0ED27
:10011000902E0300943577050080841E080000208F
:100120004E0A000000C80C333333330F986E12832D
:100130001141EF8D2114893BE65516CFFEE6DB1801
:10014000D1844B381BF77C1D901DA4BBE4242032C6
:1001500084725E228100C9F124ECA1E53D271124BF
:100160001FBECFE5D8E0DEBFCDBF10E0A0E6B0E017
:10017000EEE4FFE002C005900D92AA36B107D9F770
:1001800011E0AAE6B0E001C01D92A833B107E1F783
:100190000E944A010C94A5070C94000080E090E0B6
:1001A0000E94F402809306010895EF92FF921F933C
:1001B000CF93DF93182F90E00E94F402E82EE7011E
:1001C0007E01F92EE70181E090E00E94D002812FAC
:1001D00090E00E94F402C80FD91F81E090E00E94D5
:1001E000D002812F90E00E94F402C80FD91F81E055
:1001F00090E00E94D002812F90E00E94F402BE01A4
:10020000680F791F7695679576956795645E7F4F41
:1002100080E498E00E945A07862F8550DF91CF91A5
:100220001F91FF90EF9008950F931F930E94400538
:100230008823E1F70E944005082F0E944005182FEF
:1002400080E090E068E770E00E944004612F685809
:1002500081E090E070E00E9440040E94F2030E945E
:100260005B0380E090E00E94A10380E690E00E94A2
:100270006303802F90E00E94A10380E690E00E943B
:100280006303812F992787FD90950E94A1030E9407
:10029000F503CCCF1F930E940D040E9464040E94BA
:1002A00081010E949B0580E090E068E770E00E9479
:1002B000400481E090E068E770E00E94400419C0CB
:1002C0000E941303182F80E090E0612F70E00E94DD
:1002D00040040E945B0382E690E00E9463030E9458
:1002E0005303812F90E00E94A10388E290E00E94D6
:1002F000D0020E94E603009719F30E9414011F9197
:10030000089527B3206B2F7B27BB26B32F71206165
:1003100028BB2F7E322F3068206044E038BB4A95DE
:10032000000028BBD9F72F71206128BB089527B39F
:10033000206B2F7B27BB26B32F702061022E2F7ED0
:10034000322F422F522F206A70E080E028BB3062AB
:10035000406838BB63E0000048BB6A95000058BBAA
:10036000D9F790E008BA6FEFAFEF0000000000008F
:100370000000AA95D1F7AFEF6A95B9F70000000029
:100380000000A0E0C8BA00000000000008BA0000A9
:100390000000000058BB00000000000062E028BB25
:1003A0006A95000038BBD9F762E048BB6A95000047
:1003B00058BBD9F768E048BBB0E00000000058BB6C
:1003C000B699B60F48BB6695D1F7BC300000000067
:1003D000C9F670E064E058BBB699760F48BB6695E5
:1003E000D1F760E858BBB699A60F48BB6695D1F720
:1003F00064E058BBB699960F48BB6695D1F760E8A4
:1004000058BBB699860F48BB6695D1F76A2F08BAD4
:1004100072FD786F92FD986F0895F894DF93EF93D3
:10042000FF930F921F92DFB7F091FE00E5E2FE9F6F
:10043000EAE6F0E0E00DF11D1F900F90019211929D
:100440002192319241925192619271928192919254
:10045000A192B192C192D192E192F1920193119342
:10046000219331934193519361937193819391932C
:10047000A193B193C1932F901F900F90019211926D
:100480002192D1930F901F90019211920DB61EB63A
:1004900001921192E091FE00F091FF00E395EF17B9
:1004A0000CF0EE27E093FE00F5E2EF9FEAE6F0E0C5
:1004B000E00DF11D019011902190319041905190EB
:1004C0006190719081909190A190B190C190D190E4
:1004D000E190F190019111912191319141915191CE
:1004E0006191719181919191A191B1913796C19151
:1004F000D191CDBFDEBF3497C191D191DF93CF931E
:100500003297C291CFBFC291D291CF93DF93D29154
:10051000C291EF91FF911895EE27E093FE00E16004
:10052000E093FF00F894EE27E560E3BFE9B7E160F0
:10053000ED7FE9BF78940895E82FF92F882781602F
:10054000B091FF00B43044F5AA27A562AB9FAA275B
:10055000BB27AA66B060A00DB11D112490E21D92C8
:100560009A95E9F7992790689D93FD93ED93909163
:10057000FF0080E4899FEFE5F8E0E019F10911241C
:1005800000248CE9829385E08293ED93FD9393950B
:100590009093FF0042DF8827112408953EDFFECFAD
:1005A00020E030E040EA5FE005C0FA013197F1F762
:1005B0002F5F3F4F28173907C0F3089520E030E040
:1005C00044E050E005C0FA013197F1F72F5F3F4F4B
:1005D00028173907C0F3089586B1856886B93D9A12
:1005E0008AB3806E8ABB089597B1907E97B98730A1
:1005F00088F4DF98DE98DD982BB390E0019635E023
:10060000880F991F3A95E1F7282B2BBB84E68A9532
:10061000F1F704C097B18650892B87B9369A36997D
:10062000FECF85B10895DF98DE98DD9882E08A9547
:10063000F1F787B1807E87B9369A3699FECF85B1BA
:100640000895F8949FEF94BB85BB81E090E00E94F1
:10065000DE02C09A81E090E00E94DE02C09881E054
:1006600090E00E94DE0214BA78940895C19A0E9424
:1006700021030895C1980E9421030895282F30E096
:1006800086E0220F331F8A95E1F7862F61E10E94F1
:100690004E07892F822B80680E943A0384E690E0FF
:1006A0000E94DE02089580EC0E943A0384E690E006
:1006B0000E94DE02089581E00E943A0388E49DE0F2
:1006C0000E94DE020895EF92FF920F931F93CF9343
:1006D000DF93182FE82FF92FDF010D900020E9F7A5
:1006E00011970A2F081BE12EE7017E01F92EE70181
:1006F00007C089910E94360384E690E00E94DE02E2
:10070000AE01411B4017A8F3CDB7DEB7E6E00C946D
:100710009607AAE0B0E0EFE8F3E00C947A077E01D8
:100720000894E11CF11CA70123E030E000E010E098
:100730000E94B305C7010E9463032A96E6E00C9469
:100740009607A5E0B0E0E7EAF3E00C947E07BE016F
:100750006F5F7F4F4AE050E00E941D070E946303D5
:100760002596E2E00C949A0788E30E943A0385E01C
:1007700090E00E94D00288E30E943A0380EA90E071
:100780000E94DE0288E30E943A0380EA90E00E9421
:10079000DE0288E30E943A0380EA90E00E94DE02D3
:1007A00088E00E943A0380EA90E00E94DE0281E045
:1007B0000E943A0380EA9FE00E94DE0286E00E94E7
:1007C0003A0380EA90E00E94DE02089580B38095AB
:1007D000881F8827881F0895BB9AC39A0895BB9ADB
:1007E000C3980895D49ADC9A0895D49ADC98089511
:1007F000F89414BA949891E0292F2A95F1F723B32D
:100800009A95F1F7949A789430E002C0359527953F
:100810008A95E2F7822F8170089514BA8C9A8D9A86
:100820008E9A949A95989698B89AB99AC098C198C1
:10083000979A0E94EC020E94B40381B5886181BD41
:1008400011BC8CE090E00E943A0380EA90E00E94A4
:10085000DE02089590E0880F991FFC01E95EFE4FCB
:1008600028EF31E1318320834081518128E833E151
:10087000241B350B895F9E4FFC0131832083089533
:100880006B3F08F06AEF9AE0699FB0011124685F3E
:10089000784F90E0FC01EE0FFF1FE95EFE4F4081B4
:1008A000518128E833E1241B350BF894880F991FF8
:1008B000FC01E95EFE4F71836083895F9E4FFC01FE
:1008C000318320837894089580E090E068EF71E1AF
:1008D00048E853E19C01220F331FF901E95EFE4F06
:1008E000718360830190F081E02DDA01AE1BBF0BB4
:1008F000FD01295F3E4FD9011196FC93EE930196BD
:100900008830910539F78EB582608EBD89B78061D8
:1009100089BF78940895F894949A8FEF84BB80915E
:10092000270185BB81E0982F9A95F1F7969A982F29
:100930009A95F1F796988A95F1F714BA78940895F4
:100940001F920F920FB60F9211242F933F934F9344
:100950005F936F937F938F939F93AF93BF93EF9327
:10096000FF93809101018130B1F4109227010E9420
:100970008B042AB53BB5E0910001F0E0EE0FFF1FBC
:10098000E95FFE4F80819181820F931F9BBD8ABDDD
:10099000109201013CC0809100018F5F80930001A3
:1009A00080910001883011F410920001109227010B
:1009B000E0910001F0E0EE0FFF1FE95EFE4F808145
:1009C000918121E1883F920781F0809127019091E8
:1009D000000121E030E002C0220F331F9A95E2F7B8
:1009E000822B809327010E948B042AB53BB5E091AE
:1009F0000001F0E0EE0FFF1FE95EFE4F8081918164
:100A0000820F931F9BBD8ABD81E080930101FF91FE
:100A1000EF91BF91AF919F918F917F916F915F9176
:100A20004F913F912F910F900FBE0F901F901895EF
:100A30001F920F920FB60F9211248F939F93EF93F3
:100A4000FF93809102019CB1E8E2F1E0E80FF11D13
:100A500090838F5F877080930201809103018F5F85
:100A600080930301FF91EF919F918F910F900FBEA3
:100A70000F901F90189580910301811181E00895D6
:100A8000809103018823E1F390910301E091020139
:100A9000F0E0E91BF109E770F070E85DFE4F80813E
:100AA00091509093030108951F920F920FB60F92E9
:100AB00011248F939F93EF93FF93809105018823D7
:100AC00089F080910501E0910401F0E0E81BF10953
:100AD000E770F070E05DFE4F90819CB9815080938B
:100AE000050101C05598FF91EF919F918F910F9053
:100AF0000FBE0F901F9018959091050180E09830DF
:100B000008F481E00895909105019830E0F7559838
:100B100090910401E92FF0E0E05DFE4F8083892F82
:100B20008F5F877080930401809105018F5F8093B0
:100B30000501559A0895559857988898909888E196
:100B40008AB98EE880BD10BC83E689B91092040191
:100B5000109205011092020110920301579A089514
:100B6000559857980895A0E0B0E0E9EBF5E00C94B3
:100B70007807EA01F02E122F283008F017E0AE01B6
:100B8000212F00E00E943E06FE013191432F30FFED
:100B900004C033FD02C09DE20BC0F1FE02C09BE227
:100BA00007C0F0FC04C0BE012C2F972F04C090E2B8
:100BB00098832E2F9F2F43FF03C06CE570E004C085
:100BC00042FF0AC064E570E0F2FE02C06C5F7F4F36
:100BD000822F0E9416074BC04981A22FB92F4D9337
:100BE000413309F03F7E1123F1F06E01622F792F1E
:100BF0001150012F10E0AE014F5F5F4F400F511FAA
:100C00009EE2F6012281FB0191830894C11CD11C54
:100C10006F5F7F4F922FC416D50699F70F5F1F4F56
:100C2000A00FB11F2D93F2FC02C095E601C095E420
:100C3000FD01919387FF07C09DE211969C93119748
:100C40003196819508C0882321F434FF02C09DE2CB
:100C500001C09BE2919390E302C09F5F8A508A306B
:100C6000E4F7DF019D93805D818311961C927E01E4
:100C7000CE01CDB7DEB7E8E00C949407283008F039
:100C800027E03327DA01990F311D87FD9160009627
:100C90006105710539F432602E5F3D9330E32A958A
:100CA000E1F708959F3F30F080387105610509F044
:100CB0003C5F3C5F3D93913008F08068911DDF936D
:100CC000CF931F930F93FF92EF92192F987F9695D2
:100CD000E92F96959695E90FFF27E254FF4F992744
:100CE0003327EE24FF24A701E70105900894079419
:100CF00028F4360FE71EF81E491F511D660F771F97
:100D0000881F991F0694A1F70590079428F4E70E11
:100D1000F81E491F561FC11D770F881F991F661F98
:100D20000694A1F70590079428F4F80E491F561F62
:100D3000C71FD11D880F991F661F771F0694A1F743
:100D40000590079420F4490F561FC71FD81F990F0D
:100D5000661F771F881F0694A9F784911095177056
:100D600041F0D695C79557954795F794E7941A950E
:100D7000C1F7E4E6F0E0689415901591359165911E
:100D8000959105907FE27395E118F10A430B560B9C
:100D9000C90BD009C0F7E10CF11E431F561FC91F34
:100DA000D01D7EF4703311F48A95E6CFE89401509B
:100DB00030F0080F0AF40027021708F4202F2395BB
:100DC000022F7A3328F079E37D932A95E9F710C052
:100DD0007D932A9589F6069497956795379517958B
:100DE0001794E118F10A430B560BC90BD00998F080
:100DF00023957E9173957A3308F070E37C932013EA
:100E0000B8F77E9170617D9330F0839571E37D93A7
:100E100070E32A95E1F71124EF90FF900F911F9155
:100E2000CF91DF91992787FD90950895FB01DC0113
:100E300005900D920020E1F70895FB019F01E894D1
:100E40004230C4F04532B4F44A3029F497FB1EF422
:100E5000909581959F4F642F77270E945A07805D58
:100E60008A330CF0895D8193CB010097A1F716F4CA
:100E70005DE251931082C9010C943E07DC01FC0134
:100E8000672F71917723E1F7329704C07C916D93BE
:100E900070836291AE17BF07C8F30895991B79E07C
:100EA00004C0991F961708F0961B881F7A95C9F7FA
:100EB00080950895AA1BBB1B51E107C0AA1FBB1F49
:100EC000A617B70710F0A61BB70B881F991F5A95D6
:100ED000A9F780959095BC01CD0108952F923F927E
:100EE0004F925F926F927F928F929F92AF92BF923A
:100EF000CF92DF92EF92FF920F931F93CF93DF93E6
:100F0000CDB7DEB7CA1BDB0B0FB6F894DEBF0FBE42
:100F1000CDBF09942A88398848885F846E847D848F
:100F20008C849B84AA84B984C884DF80EE80FD8091
:100F30000C811B81AA81B981CE0FD11D0FB6F89407
:0E0F4000DEBF0FBECDBFED010895F894FFCFC8
:0A0F4E00200057616974696E6700A6
:00000001FF
